:020000040800F2
:1080000000000420D5840008D3840008D18400082F
:10801000D1840008D1840008D18400080000000049
:10802000000000000000000000000000D3840008F1
:10803000D384000800000000D3840008D384000823
:10804000D1840008D1840008D1840008D1840008BC
:10805000D1840008D1840008D1840008D1840008AC
:10806000D1840008D1840008D1840008D18400089C
:10807000D1840008D1840008D1840008D18400088C
:10808000D1840008D1840008D1840008D18400087C
:10809000D1840008D1840008D1840008D18400086C
:1080A000D1840008D1840008D1840008D18400085C
:1080B000D1840008D1840008D1840008D18400084C
:1080C000D1840008D1840008D1840008D18400083C
:1080D000D1840008D1840008D1840008D18400082C
:1080E000D1840008D1840008D1840008D18400081C
:1080F000D1840008D1840008D1840008D18400080C
:10810000D1840008D1840008D1840008D1840008FB
:10811000D1840008D1840008D1840008D1840008EB
:10812000D1840008D1840008D1840008D1840008DB
:10813000D1840008D1840008D1840008D1840008CB
:10814000D1840008D1840008D1840008D1840008BB
:10815000D1840008D1840008D1840008D1840008AB
:10816000D1840008D1840008D1840008D18400089B
:10817000D1840008D1840008D1840008D18400088B
:10818000D1840008D1840008D1840008D18400087B
:10819000D1840008D1840008D1840008D18400086B
:1081A000D1840008D1840008D184000813B50220CE
:1081B00000F018F9022000F0E9F8012000F03EF983
:1081C000002000F059F9042000F04CF900200024B0
:1081D00000F03EF900F05EF8042000F063F800F0D3
:1081E0006BF800F071F8234628220421CDE9004401
:1081F000022000F04BF9204600F0F4F8204600F091
:10820000C5F8032000F01AF9204600F0C7F81A4A12
:108210001A4B13601A4A1B4911601B4A40F6821020
:10822000136000F047F9224618484FF4806301219B
:1082300000F060F822464FF480531448134C01219B
:1082400000F058F811484FF4806100F045F80F48ED
:108250004FF4805100F042F80D4B00BF013BFCD1C0
:1082600020464FF4806100F03CF84FF480512046E6
:1082700000F037F8F0E700BF0000002000B4C404AD
:1082800004000020005A6202080000200008004894
:1082900000093D00024A136843F48073136070477D
:1082A00000200240034A136823F0070318431060BC
:1082B000704700BF00200240024A136843F4806305
:1082C0001360704700200240024A136843F40073B1
:1082D000136070470020024081617047090481618A
:1082E0007047436901EA030221EA030141EA0241BE
:1082F000816170472DE9F0410568C46800264FF0A0
:10830000030E43FA06F7FF070DD577000EFA07FCB8
:1083100001FA07F825EA0C0524EA0C0402FA07F72B
:1083200048EA05053C430136102EEAD10560C460D9
:10833000BDE8F08106281FD8DFE800F004090E131D
:10834000181A1C000D4B1868C0F3406070470B4BA7
:108350001868C0F340407047084B1868C0F380208D
:108360007047064B1868C0F340007047044BF9E7AC
:10837000044BF7E7044BF5E700207047001002407C
:1083800090100240941002409810024008B5024636
:108390001046FFF7CFFF0028FAD008BD032808D801
:1083A000DFE800F0160F08020D4A136813F00C0FF7
:1083B000FBD170470A4A1368C3F38103012BFAD13A
:1083C0007047074A1368C3F38103022BFAD1704741
:1083D000034A1368C3F38103032BFAD1704700BF2C
:1083E0000810024006280AD8DFE800F0040A0F143B
:1083F000191B1D000D4A136843F08073136070470A
:108400000A4A136843F48033F8E7084A136843F4D0
:108410008073F3E7054A136843F00103EEE7044A6B
:10842000F9E7044AF7E7044AF5E700BF0010024005
:10843000901002409410024098100240034A1368C2
:1084400023F0030318431060704700BF0810024078
:10845000034A136823F4605343EAC0201060704756
:1084600008100240034A136823F4E06343EA002043
:108470001060704708100240034A136823F0F003AD
:1084800043EA0010106070470810024010B5039CCA
:108490000139640644EA01142043029C40EA445036
:1084A000034343EA0222024B42F080721A6010BD7D
:1084B0000C100240430903F1804303F5043300F03C
:1084C0001F001968012202FA00F008431860704783
:1084D000FEE7704738B51A4A1A4B1B498B421BD32B
:1084E0001A4A002193421CD3194A1A4C13681A4D98
:1084F00043F400731360536F43F470035367AC424B
:1085000012D3164C164DAC4212D3FFF74FFE154C4A
:10851000154DAC4210D338BD52F8040B43F8040B90
:10852000DCE743F8041BDDE754F8043B9847E6E733
:1085300054F8043B9847E6E754F8043B9847E8E7CB
:108540006C850008000000200C0000200C000020BA
:1085500014ED00E06C8500086C8500086C8500084F
:0C8560006C8500086C8500086C85000824
:0C856C0000093D0000093D0000093D0031
:04000005080084D596
:00000001FF