:020000040800F2
:1080000000000420A9910008A7910008A59100088C
:10801000A5910008A5910008A591000800000000A6
:10802000000000000000000000000000A791000810
:10803000A791000800000000A7910008A791000880
:10804000A5910008A5910008A5910008A591000838
:10805000A5910008A5910008A5910008A591000828
:10806000A5910008A5910008A5910008A591000818
:10807000A5910008A5910008A5910008A591000808
:10808000A5910008A5910008A5910008A5910008F8
:10809000A5910008A5910008A5910008A5910008E8
:1080A000A5910008A5910008A5910008A5910008D8
:1080B000A5910008A5910008A5910008A5910008C8
:1080C000A5910008A5910008A5910008A5910008B8
:1080D000A5910008A5910008A5910008A5910008A8
:1080E000A5910008A5910008A5910008A591000898
:1080F000A5910008A5910008A5910008A591000888
:10810000A5910008A5910008A5910008A591000877
:10811000A5910008A5910008A5910008A591000867
:10812000A5910008A5910008A5910008A591000857
:10813000A5910008A5910008A5910008A591000847
:10814000A5910008A5910008A5910008A591000837
:10815000A5910008A5910008A5910008A591000827
:10816000A5910008A5910008A5910008A591000817
:10817000A5910008A5910008A5910008A591000807
:10818000A5910008A5910008A5910008A5910008F7
:10819000A5910008A5910008A5910008A5910008E7
:1081A000A5910008A5910008A59100082DE9F043CC
:1081B000ADF50B7D00F062F800F0C2F800F004F9B4
:1081C00000F09CF84FF48A720021684601F038F8FC
:1081D0004FF481746846039400F084FA4FF48A7275
:1081E00000210DEB020001F02BF81F4E1F4D4894AB
:1081F00045A800F086FA00240123DFF87C801C4F9C
:1082000033602C60D5F80090B9F1000F18D16846A2
:1082100000F034FA45A9684600F046FA013445A852
:1082200000F04AFA4445EDD14FF48061384600F041
:10823000F8FC4FF48051384600F0F3FC4C46E1E77F
:1082400000F002FA70B1459B43B10A4B00BF013BFD
:10825000FCD12B60336000F003FAD3E745A800F0AF
:108260002BFAF0E72860CDE7100000200C0000207A
:108270000008004800093D00006A180013B50220FC
:1082800000F08AFD022000F05BFD012000F0B0FD4F
:10829000002000F0CBFD042000F0BEFD002000F027
:1082A000B1FD0024042000F091FC23462822042183
:1082B000CDE90044022000F0C3FD204600F06CFD33
:1082C000204600F03DFD032000F092FD204600F026
:1082D0003FFD054A054B1360054A06491160064AF1
:1082E000136002B010BD00BF0000002000B4C40441
:1082F00004000020005A62020800002008B540F681
:10830000821000F0D3FD0D484FF48063002201215C
:1083100000F090FC4FF4805308480022012100F047
:1083200089FC06484FF4806100F076FCBDE8084007
:1083300002484FF4805100F071BC00BF00080048B3
:1083400008B540F60E0000F0BFFD4FF4186000F0D5
:10835000ADFD40F60E4000F0A9FD4FF4C0630022D1
:1083600002214FF0904000F065FC4FF400720721AD
:108370004FF0904000F07EFC4FF4806207214FF0F8
:10838000904000F077FC0F484FF4E13100F0ACFE74
:108390000C48082100F0D2FE0A48002100F0D7FE68
:1083A00008480C2100F0DFFE0648002100F0D5FE51
:1083B0000448002100F0DDFEBDE80840014800F05F
:1083C000DEBE00BF0038014008B5052000F0E4FC27
:1083D000052000F0B5FC40F61C3000F067FD00F011
:1083E00073FC052000F048FD00F03EFD00F08AFD22
:1083F00000F072FC014B00221A6008BD140000203E
:108400002DE9F84F3D4B994202D8002874D001382D
:108410003B4A3C4C00F528408030B0FBF2F302FBB5
:108420001300394A1C44A300B3FBF2F35A43D11C96
:1084300048BF911DA4EBA1044FF47A65334A04FBB5
:10844000055595FBF2F540F2B5526A4348BF033239
:10845000A4EBA2041F345026313B40F68F1766432D
:1084600046F6251296FBF7F94FF4616B96FBF2F690
:10847000642202FB0355B0FBFBF80BFB180B00F06A
:1084800023FC00F053FD00F05FFD00F075FD7F213F
:10849000F92000F02BFD00F075FDA8193030C0B2B6
:1084A00000F080FD09F1020A6FF00B0000FB06A04E
:1084B000C0B200F08DFD07FB09F06FF04F0790FB95
:1084C000F7F02044C0B200F09DFD00F063FD3C22B7
:1084D000BBFBF2F102FB11B201235FFA88F0D2B2CA
:1084E000C9B200F0F3FD00F037FD00F027FD00F009
:1084F000F3FB074B01201860BDE8F88FFF9DF70ADA
:108500008051010032742600B13A0200094B160076
:10851000140000202DE9F04F454B85B0CDE9020154
:108520001868002800F08180424CDFF8188122682A
:10853000236821684FF00A0B120DC3F303430BFBB2
:1085400002332268C1F30031C2F303220BFB012284
:10855000216800912768D8F80040D8F800E0D8F8E2
:108560000060D8F800C0D8F80050D8F80010019189
:10857000009907F00F07C1F301110BFB017103F51F
:10858000D45B0BF1100BA2F10E0A4FF00C08A1F511
:10859000FA419AFBF8F940F2B557CB4403F5D753AB
:1085A00007FB0BF7023A14334B3901EBA70199444F
:1085B0006FF00B07642340F26F1BB9FBF3F99AFBD2
:1085C000F7FA19EB490908FB0A2A1B4B0BFB0AFABD
:1085D00048BF09F103099AFBF8F841440A22A1EBCC
:1085E000A901C4F30154CEF3034EC6F30236CCF313
:1085F000032C0B4402FB04E43C2102FB06C601FBF6
:1086000004644C430D4901FB03430199C5F3021572
:1086100001F00F0102FB05151D44A5F52845029B3D
:10862000039A803D1D60064B136005B0BDE8F08FD6
:108630001400002004280040A797DAFF80510100B1
:10864000009EF70A00280040044B186800F16040C3
:10865000B0F5802F8CBF0020012070470000050876
:10866000044B05491A68043B0B601B6883F30888B8
:10867000104700BF0400050808ED00E038B5094DBB
:1086800004462021284600F087FD10B123780A2BEC
:1086900000D138BD284600F07BFDC1B2204600F075
:1086A00007F9EEE70038014002780A2A03D10B6887
:1086B0000BB100F045B9704738B5094D044680212B
:1086C000284600F069FD08B1236803B138BD204693
:1086D00000F002FA81B2284600F056FDEFE700BF35
:1086E00000380140C1680023C0E90133037000F184
:1086F000100208441030824200D1704702F8013B5A
:10870000F9E7C16801220023C0E90023836000F17A
:10871000100208441030824200D1704702F8013B39
:10872000F9E710B500F05CFA002414F4F06F05D1FD
:10873000E00A103000F024FA00F012FA8034B4F5A8
:10874000000FF2D100F058FA012010BD2DE9F843D6
:1087500003780A2B044640F0A680037E022B33D117
:1087600000F03EFA657EED0115F4F06F05D1E80AE0
:10877000103000F005FA00F0F3F905F100654B4FF9
:1087800004F1120605F5A025923456F8089FD6F894
:10879000048000F0B5F93B6843F001033B60C5F885
:1087A0000090C5F8048000F0ABF93B6823F00103AA
:1087B0003B6000F0D5F9B44205F10805E5D100F0C1
:1087C0001BFA0120BDE8F883032B32D100F008FA30
:1087D000637EA57E05EB0325ED0115F4F06F05D151
:1087E000E80A103000F0CCF900F0BAF905F10065A4
:1087F0002E4F04F1130605F5A025933456F8089F73
:10880000D6F8048000F07CF93B6843F001033B603C
:10881000C5F80090C5F8048000F072F93B6823F0B9
:1088200001033B6000F09CF9B44205F10805E5D175
:10883000C5E7202B37D100F0D3F9A57E637E2D0448
:1088400005EB0365237F1D44E37E05EB0325C5F39C
:108850000A034BB905F1774000F57B00C00A1030E0
:1088600000F08EF900F07CF9104F04F115069534F4
:1088700056F8089FD6F8048000F042F93B6843F0B0
:1088800001033B60C5F80090C5F8048000F038F99A
:108890003B6823F001033B6000F062F9B44205F14C
:1088A0000805E5D18BE700208CE700BF14200240CB
:1088B000037810B4092B0BD8DFE803F0050D161F61
:1088C0002225282B2E35222902D101740123037081
:1088D0005DF8044B7047692902D141740223F6E721
:1088E0005DF8044BFFF7FEBE0529F9D90923817411
:1088F0000331436081600323E9E7C1740423E6E7A1
:1089000001750523E3E741750623E0E78175072339
:10891000DDE7C1750823DAE7D0E901239A42017641
:108920000CD20923D3E7D0E9013293423FBFC418E8
:1089300001332174436043689A42C9D10A23C6E7D0
:1089400037B503780A2B05460C4637D10B68002B48
:1089500034D046F622130B82C37CCB74037D0B7597
:10896000437D4B75837D8B75C27D130943EA0213EA
:10897000CB750023CDE90033037E202B14D8202BA8
:1089800014D8DFE803F065466D7B1313131313133C
:108990001399591313465546462B4B13131D461373
:1089A0001313131313138800FF2B32D0A37C03334C
:1089B000A360002323602846FFF794FE03B030BD78
:1089C00054238B7418230B7601F15E0201F1190315
:1089D000002103F8011B9342FBD1E7E701A9684698
:1089E000FFF798FDA8B10E23A37414232376DDE9C5
:1089F0000023110A6276A176110C120E22771A0A50
:108A00006377A2771A0C1B0EE176E27784F82030A8
:108A1000CCE70623A374FF232376C7E7D0F8190019
:108A2000D5F81D10CDE90001FFF7EAFC0028F0D0D1
:108A30000623A3741023EFE7254B1B68002BE8D017
:108A4000FFF76FFE0723A37440F201132383ADE702
:108A50001F4B1B68002BDCD007238B740123F5E729
:108A6000FFF774FE30B10723A374012323766B7ED6
:108A700063769BE70623A3740F23CDE7FFF766FE1B
:108A80000028F7D00823A374012323766B7E637636
:108A9000AB7EA3768AE7FFF759FE0028EAD00A23C7
:108AA000A374012323766B7E6376AB7EA376EB7E85
:108AB000E3762B7F237779E7054B1B68002BA8D043
:108AC000044B01221A6007238B744FF60173BDE734
:108AD000100000200C00002010B5046882686CB9FA
:108AE0004368934203D2C11801330C7C436043684E
:108AF000934201D1FFF705FE204610BD0024F6E7A2
:108B0000024A1368DB03FCD4704700BF1020024008
:108B1000024A136843F0800313607047102002403C
:108B2000024A136843F0400313607047102002406C
:108B3000024A136843F0200313607047102002407C
:108B4000024A136843F0100313607047102002407C
:108B5000024A136843F00803136070471020024074
:108B600008B5FFF7D5FFFFF7DBFFFFF7E1FFFFF7E2
:108B7000E7FFFFF7EDFFBDE8084000F045B8000053
:108B800008B5FFF7BDFF10490B6823F47F6323F09E
:108B900008030B60FF2882BF0B6843F400630B607F
:108BA0000B6843EAC00008600B6843F002030B60E7
:108BB0000B6843F480330B60FFF7A2FF0B6823F0D0
:108BC00002030B6008BD00BF14200240034A136873
:108BD00023F0070318431060704700BF00200240D5
:108BE000034B044A1A6002F188321A60704700BFD2
:108BF0000820024023016745024A136843F00043FE
:108C00001360704714200240024A136843F00103C6
:108C10001360704710200240816170470904816130
:108C20007047436901EA030221EA030141EA024174
:108C3000816170472DE9F0410568C46800264FF056
:108C4000030E43FA06F7FF070DD577000EFA07FC6F
:108C500001FA07F825EA0C0524EA0C0402FA07F7E2
:108C600048EA05053C430136102EEAD10560C46090
:108C7000BDE8F081F0B5076A466A00234FF00F0C9B
:108C800042FA03F4E50707D59D000CFA05F427EA3C
:108C9000040701FA05F52F430133082BF0D14FF0FB
:108CA0000F0C42FA03F4E40708D59C00203C0CFAB0
:108CB00004F526EA050601FA04F426430133102BD5
:108CC000EFD107624662F0BD024A136843F4807335
:108CD0001360704700700040024A136823F48073E9
:108CE000136070470070004006281FD8DFE800F0CE
:108CF00004090E13181A1C000D4B1868C0F34060CD
:108D000070470B4B1868C0F340407047084B186819
:108D1000C0F380207047064B1868C0F340007047CE
:108D2000044BF9E7044BF7E7044BF5E700207047E5
:108D3000001002409010024094100240981002402F
:108D400008B502461046FFF7CFFF0028FAD008BD4D
:108D5000032808D8DFE800F0160F08020D4A136850
:108D600013F00C0FFBD170470A4A1368C3F3810359
:108D7000012BFAD17047074A1368C3F38103022B12
:108D8000FAD17047034A1368C3F38103032BFAD166
:108D9000704700BF0810024006280AD8DFE800F03C
:108DA000040A0F14191B1D000D4A136843F0807349
:108DB000136070470A4A136843F48033F8E7084A9F
:108DC000136843F48073F3E7054A136843F0010323
:108DD000EEE7044AF9E7044AF7E7044AF5E700BF7B
:108DE000001002409010024094100240981002407F
:108DF000034A136823F0030318431060704700BF51
:108E000008100240034A136823F4605343EAC02069
:108E10001060704708100240034A136823F4E063AF
:108E200043EA00201060704708100240034A1368AC
:108E300023F0F00343EA001010607047081002406E
:108E400010B5039C0139640644EA01142043029CD6
:108E500040EA4450034343EA0222024B42F080724C
:108E60001A6010BD0C100240024A136843F400431C
:108E700013607047901002400B4B1A68042822F4CC
:108E800040721A6008D005280AD0012803D11A6858
:108E900042F440721A6070471A6842F48072F9E72F
:108EA0001A6842F40072F5E790100240430903F19A
:108EB000804303F5043300F01F001968012202FA11
:108EC00000F0084318607047430903F1804303F53D
:108ED00004330122196800F01F0002FA00F0014378
:108EE00019601A6822EA000018607047044BC0F34A
:108EF0000E0018601A6842EA01411960704700BF0D
:108F000010280040074BCA221A6053221A60064AF2
:108F1000116821F02001116011688906FCD5FF223B
:108F20001A607047242800400C280040024BCA22D7
:108F30001A6053221A60704724280040014BFF2218
:108F40001A60704724280040024A136843F08003E7
:108F5000136070470C280040024A136823F0800316
:108F6000136070470C280040024B1868C0F3801053
:108F7000704700BF0C28004008B5FFF7F5FF002838
:108F8000FBD008BD024A136843F02003136070470A
:108F900008280040024A136823F04003136070471A
:108FA000082800400A23B0FBF3F203FB120040EA5A
:108FB0000213064A116821F47F01116011681B0435
:108FC00003F47F030B431360704700BF0428004085
:108FD0000A23B0FBF3F203FB120040EA0210084A36
:108FE000136823F4F853136003020002116803F4BA
:108FF000805300F47060184308431060704700BF4E
:10900000042800400A23B0FBF3F203FB120040EAFD
:109010000213054A116821F03F011160116803F045
:109020003F030B4313607047042800400F4B1A683E
:10903000C9B122F480021A600A23B0FBF3F203FBE9
:10904000120040EA0210094A136823F47C131360EB
:1090500003040004116803F4401300F47020184363
:1090600008431060704742F48002E4E700280040A3
:109070000A23B0FBF3F203FB120040EA0210084A95
:10908000136823F4FE43136003020002116803F423
:10909000E04300F47060184308431060704700BF5D
:1090A000002800400A23B0FBF3F203FB120040EA61
:1090B0000213054A116821F07F011160116803F065
:1090C0007F030B43136070470028004038B50D46FE
:1090D00019461446FFF7AAFF2846FFF7C9FF2046A6
:1090E000BDE83840FFF7DEBF0F4A904210B54FEAA7
:1090F000510306D10D4A12681A44B2FBF1F2C26064
:1091000010E00B4C0B4AA0421268F5D1B2FBF1F013
:1091100001FB102203EB0222B2FBF1F3064A03EB40
:109120000023136010BD00BF00380140080000207C
:1091300000800040040000200C80004003680829E3
:109140000CBF23F4805343F480530360704743689B
:1091500023F44053194341607047036823F4C0630C
:10916000194301607047036823F00C031943016041
:109170007047836823F44073194381607047036824
:1091800043F0010303607047C1F308018162704737
:10919000406AC0F308007047C3690B4214BF012046
:1091A00000207047FEE7704738B51A4A1A4B1B4932
:1091B0008B421BD31A4A002193421CD3194A1A4CE2
:1091C00013681A4D43F400731360536F43F4700334
:1091D0005367AC4212D3164C164DAC4212D3FEF775
:1091E000E5FF154C154DAC4210D338BD52F8040BB9
:1091F00043F8040BDCE743F8041BDDE754F8043BB9
:109200009847E6E754F8043B9847E6E754F8043BF0
:109210009847E8E7E0920008000000200C000020DA
:109220001800002014ED00E0E0920008E092000831
:10923000E0920008E0920008E0920008E092000846
:10924000F0B4860746D0541E002A3CD0CAB203466A
:1092500002E014F1FF3436D303F8012B9D07F8D157
:10926000032C29D9CDB245EA05250F2C45EA054541
:1092700033D9A4F11006360903F1200707EB0617CE
:1092800003F1100242E9045542E902551032BA4294
:10929000F8D1721C14F00C0F03EB021204F00F064D
:1092A00013D0331F23F003030433134442F8045B49
:1092B0009342FBD106F003042CB1C9B21C4403F85D
:1092C000011B9C42FBD1F0BC704734461346002C76
:1092D000F3D1F8E714460346C2E71A462646E0E70C
:0C92E00000093D0000093D0000093D00B0
:04000005080091A9B5
:00000001FF
