:020000040800F2
:1080000000000420D1D00008CFD00008CDD0000857
:10801000CDD00008CDD00008CDD000080000000071
:10802000000000000000000000000000CFD00008A9
:10803000CFD0000800000000CFD00008CFD000084B
:10804000CDD00008CDD00008CDD00008CDD000089C
:10805000CDD00008CDD00008CDD00008CDD000088C
:10806000CDD00008CDD00008CDD00008CDD000087C
:10807000CDD00008CDD00008CDD00008CDD000086C
:10808000CDD00008CDD00008CDD00008CDD000085C
:10809000CDD00008CDD00008CDD00008CDD000084C
:1080A000CDD00008CDD00008CDD00008CDD000083C
:1080B000CDD00008CDD00008CDD00008CDD000082C
:1080C000CDD00008CDD00008CDD00008CDD000081C
:1080D000CDD00008CDD00008CDD00008CDD000080C
:1080E000CDD00008CDD00008CDD00008CDD00008FC
:1080F000CDD00008CDD00008CDD00008CDD00008EC
:10810000CDD00008CDD00008CDD00008CDD00008DB
:10811000CDD00008CDD00008CDD00008CDD00008CB
:10812000CDD00008CDD00008CDD00008CDD00008BB
:10813000CDD00008CDD00008CDD00008CDD00008AB
:10814000CDD00008CDD00008CDD00008CDD000089B
:10815000CDD00008CDD00008CDD00008CDD000088B
:10816000CDD00008CDD00008CDD00008CDD000087B
:10817000CDD00008CDD00008CDD00008CDD000086B
:10818000CDD00008CDD00008CDD00008CDD000085B
:10819000CDD00008CDD00008CDD00008CDD000084B
:1081A000CDD00008CDD00008CDD0000800B5ADF589
:1081B0000B7D00F027F800F065F800F0A7F84FF409
:1081C0008A720021684604F0E1FF4FF4817468462A
:1081D000039401F077FD4FF48A7200210DEB020049
:1081E00004F0D4FF45A8489401F07BFD684601F0F7
:1081F00035FD684645A901F047FD45A801F04CFD55
:10820000F4E7000013B5022004F05AFD022004F048
:108210002BFD012004F080FD002004F09BFD0420D4
:1082200004F08EFD002004F081FD0024042004F001
:108230006FFC234628220421CDE90044022004F0EB
:1082400093FD204604F03CFD204604F00DFD032084
:1082500004F062FD204604F00FFD054A054B136053
:10826000054A06491160064A136002B010BD00BFFE
:108270000400002000B4C40408000020005A620278
:108280000C00002008B540F60E0004F0B1FD4FF4DC
:10829000186004F09FFD40F60E4004F09BFD4FF483
:1082A000C063002202214FF0904004F057FC4FF4CD
:1082B000007207214FF0904004F070FC4FF4806290
:1082C00007214FF0904004F069FC0F484FF4E13172
:1082D00004F09EFE0C48082104F0C4FE0A48002168
:1082E00004F0C9FE08480C2104F0D1FE0648002124
:1082F00004F0C7FE0448002104F0CFFEBDE80840AA
:10830000014804F0D0BE00BF0038014008B5052088
:1083100004F0D6FC052004F0A7FC40F61C3004F065
:1083200059FD04F065FC052004F03AFD04F030FD31
:1083300004F07CFD04F064FC014B00221A6008BDCF
:10834000EC010020454B99422DE9F04703D8002865
:1083500000F081800138424A424C434D00F52840EC
:108360008030B0FBF2F302FB1300404A1A44930042
:10837000B3FBF4F35C43E11C48BFA11DA2EBA102D7
:108380004FF47A6440F2B55102FB044494FBF5F5D6
:10839000694348BF0331A2EBA10202F11F01502241
:1083A0004A4340F68F1646F6251492FBF6F792FBE9
:1083B000F4F2A3F13104642307F1020C03FB04542B
:1083C0006FF00B05144405FB02C2D5B24FF4616295
:1083D0007E436FF04F0396FBF3F6B0FBF2F302FB24
:1083E00013003C223144DFB2B0FBF2F302FB130076
:1083F0005FFA83F8CEB25FFA80F904F0F9FB04F07B
:1084000029FD04F035FD04F04BFD194B1A6830349A
:10841000E4B29A462AB97F21F92004F0FBFC04F06B
:1084200045FD204604F052FD284604F065FD304627
:1084300004F07CFD04F042FD384601234A464146E3
:1084400004F0D8FD04F01CFD04F00CFD04F0D8FB92
:108450000120CAF80000BDE8F08700BFFF9DF70AC1
:1084600080510100B13A0200094B16003274260017
:10847000EC0100202DE9F04F454B85B0CDE902011C
:108480001868002800F08180424CDFF818812268CB
:10849000236821684FF00A0B120DC3F303430BFB53
:1084A00002332268C1F30031C2F303220BFB012225
:1084B000216800912768D8F80040D8F800E0D8F883
:1084C0000060D8F800C0D8F80050D8F8001001912A
:1084D000009907F00F07C1F301110BFB017103F5C0
:1084E000D45B0BF1100BA2F10E0A4FF00C08A1F5B2
:1084F000FA419AFBF8F940F2B557CB4403F5D7534C
:1085000007FB0BF7023A14334B3901EBA7019944EF
:108510006FF00B07642340F26F1BB9FBF3F99AFB72
:10852000F7FA19EB490908FB0A2A1B4B0BFB0AFA5D
:1085300048BF09F103099AFBF8F841440A22A1EB6C
:10854000A901C4F30154CEF3034EC6F30236CCF3B3
:10855000032C0B4402FB04E43C2102FB06C601FB96
:1085600004644C430D4901FB03430199C5F3021513
:1085700001F00F0102FB05151D44A5F52845029BDE
:10858000039A803D1D60064B136005B0BDE8F08F77
:10859000EC01002004280040A797DAFF8051010079
:1085A000009EF70A002800400022C0E900222A4964
:1085B00082602DE9F04FD1F800B00A68DFF89CC066
:1085C0000F68D1F800A00E68D1F80090DCF80050D8
:1085D000DCF80080DCF80040DCF800E0DCF800109B
:1085E000DCF800C04FEA1B5B0BEB8B0BC2F30342C2
:1085F00002EB4B0202F5FA62C7F300370280C6F3C2
:108600000116BA00C5F30155C4F30234C1F30211D7
:108610001744CAF3032A09F00F09C8F30348CEF33D
:10862000032E0CF00F0C06EB860605EB850504EB1C
:10863000840401EB81010AEB470709EB460608EBCE
:1086400045050EEB44040CEB41018770C6700571C3
:1086500044718171BDE8F08F04280040002800407B
:108660002DE9F04F2DED028BA7B00E4691F82A2090
:108670008DF830200023044691F82B2043800CA86D
:108680008DF831208DF8323004F072FD96F82C30E0
:108690008DF8883096F82D308DF8893096F82E3088
:1086A0008DF88A3096F82F308DF88B3096F8303070
:1086B0008DF88C3096F831308DF88D3096F8323058
:1086C0008DF88E3096F833308DF88F3081B296F871
:1086D00034308DF8903000B2382896F835308DF867
:1086E0009130D4BF01F5FA6101F26C7196F8363021
:1086F0008DF8923089B2002596F837300B9122A878
:108700008DF893308DF8945004F02EFD96F84D00BE
:108710008DF8700030208DF871002E208DF87200D9
:1087200096F84E008DF8730096F84F008DF874009F
:1087300096F850008DF8750096F851008DF8760087
:1087400096F852008DF8770065208DF8780096F83D
:1087500053008DF8790053EC102B96F854008DF8E7
:108760007A001CA8CDE908238DF87B5004F0FCFCAE
:1087700096F865008DF8340096F866008DF835009F
:1087800096F867008DF8360096F868008DF8370087
:1087900096F869008DF8380096F86A008DF839006F
:1087A00096F86B008DF83A0096F86C008DF83B0057
:1087B0000DA88DED000B8DF83C5004F0D5FC96F81B
:1087C0006E008DF8400096F86F008DF8410096F825
:1087D00070008DF8420096F871008DF8430096F80D
:1087E00072008DF8440096F873008DF8450096F8F5
:1087F00074008DF8460096F875008DF8470010A8B3
:108800008DED020B8DF8485004F0AEFC42F630605E
:10881000ADF8640096F877008DF8660096F8780059
:108820008DF8670096F879008DF8680096F87A0060
:108830008DF8690096F87B008DF86A0096F87C0048
:108840008DF86B0096F87D008DF86C0019A88DED01
:10885000040B8DF86D5004F087FC96F87F008DF8BE
:108860004C0096F880008DF84D0096F881008DF848
:108870004E0096F882008DF84F0096F883008DF830
:10888000500096F884008DF8510096F885008DF818
:10889000520096F886008DF8530013A88DED060B54
:1088A0008DF8545004F060FC96F888008DF858005C
:1088B00096F889008DF8590096F88A008DF85A00CC
:1088C00096F88B008DF85B0096F88C008DF85C00B4
:1088D00096F88D008DF85D0096F88E008DF85E009C
:1088E00096F88F008DF85F0016A85BEC10AB8DF842
:1088F000605004F039FC96F891008DF87C0096F8F1
:1089000092008DF87D0096F893008DF87E0096F821
:1089100094008DF87F0096F895008DF8800096F809
:1089200096008DF8810096F897008DF8820096F8F1
:1089300098008DF8830096F899008DF8840096F8D9
:108940009A008DF8850096F89B008DF886001FA888
:1089500059EC108B8DF8875004F006FCDDE90823F4
:108960000B9921801046194657EC106B0AF040FF16
:108970006060DDE900010AF03BFFA060DDE9020173
:108980000AF036FF9FED208A07EE900A67EE887A9C
:10899000DDE90401C4ED037A0AF02AFF07EE900A2C
:1089A00067EE887ADDE90601C4ED047A0AF020FF5B
:1089B0005946606150460AF01BFF07EE900A67EEC9
:1089C000887A4946C4ED067A40460AF011FF07EE60
:1089D000900A27EE888A304684ED078A39460AF0E5
:1089E00007FFDFED0A7ADFED0A6A07EE100A67EE8D
:1089F000277A204687EEA67A84ED087A27B0BDEC68
:108A0000028BBDE8F08F00BF35FA8E3CDB0FC9400A
:108A10000000B4444FF4C87290FBF2F302FB13035E
:108A20001BB263B1642290FBF2F302FB13031BB28F
:108A30003BB110F0030F0CBF012000207047012054
:108A400070471846704700002DE9F04F2DED028B5E
:108A500000238BB0C371644BB1F900B004AA824605
:108A60000D4603F11807144618685968164603C6E0
:108A70000833BB423246F7D15846FFF7CBFF10B15F
:108A80001D23ADF8123095ED018A18EE100A0AF098
:108A90005FFB41EC100B01F06BFC51EC100B0AF08A
:108AA00087FE012380B21F210022DDB281420095A2
:108AB000C0F08C80009B012B40F09280019007EE6B
:108AC000900AF8EE677AB3EE087A78EE677A67EE86
:108AD000877A17EE900A0AF03BFB41EC100BCDE9C8
:108AE000020101F045FC59EC108B10EE102A4B46A8
:108AF000DDE902010AF0CCF90AF07AFEDFED3B7AFB
:108B000007EE100A67EE277A17EE900A0AF020FBAC
:108B100041EC100BCDE9020101F02AFC57EC106B7F
:108B2000DDE9020110EE102A3B460AF0B1F9304BA4
:108B300000220AF065FB41EC100BCDE9020101F0C7
:108B400017FC55EC104B10EE102A2B46DDE9020104
:108B50000AF09EF90AF04CFEDFED267A07EE100AC5
:108B600067EE277A17EE900A0AF0F2FA41EC100B42
:108B700001F082FC53EC102BCDE90223009B8AF814
:108B80000230019B8AF803304946AAF800B04046FB
:108B90000AF00EFE39468AF8040030460AF008FE54
:108BA00029468AF8050020460AF002FEDDE9022384
:108BB0008AF80600194610460AF0FAFDCAF80800BD
:108BC00050460BB0BDEC028BBDE8F08F0C2B3FF490
:108BD00071AF34F813500D440A460133A9B264E76B
:108BE000821A93B201936AE79C390108000070422F
:108BF00000004E40286B6E4E70B500F59655A1F101
:108C00000E040C2394FBF3F3EE1840F2B5557543B4
:108C1000A2F5FA4248BF03354B3A00F5995002EBF2
:108C2000A50202396FF00B05043094FBF5F40C2516
:108C300005FB0414034440F26F11642093FBF0F32E
:108C400013EB430301FB04F448BF033394FBF5F437
:108C50002244A2EBA30070BDF8B505460C46C278CD
:108C60008178B0F90000FFF7C7FF6A792B79A17806
:108C70003C2717FB0323AA79064607FB0323B4F915
:108C80000000E27807EE103AFFF7B6FF6279237929
:108C9000DFED156A17FB0323A27907FB032307EE19
:108CA000903AB8EEC77AF8EEE77A361A77EE677A36
:108CB0009FED0E7A87EE870A07EE906A9FED0C7A99
:108CC000F8EE677A07EE870A95ED027AD4ED027A1C
:108CD000B8EE477AF8EE677A77EE677A87EEA67A8B
:108CE00030EE070AF8BD00BF76845F510000704285
:108CF0000000B44400000000DFEDF97AC7EE837A8B
:108D00002DE9F04F2DED108B17EE900AA1B0B0EECB
:108D100043AA8DED072ACDED0E2AF0EE638AF0EE20
:108D2000619A8DED020ACDED0D0A8DED051A0AF05E
:108D30000FFA9FEDE51B41EC100B01F091FC51EC9B
:108D4000100B0AF055FD09EE100A0D989FEDE5BADB
:108D50000AF0FEF941EC100B41EC1C0B01F0A8FAF3
:108D600051EC100B0AF044FD0AEE900AB7EE008AAF
:108D70002AEEAAFAB0EE48DAF0EE087A09EEE9DA5D
:108D8000B0EE487A1FEE277A1DEE100A8DED017ABB
:108D90000AF0DEF941EC100B01F030FD51EC100B44
:108DA0000AF026FD9DED017ADFEDCF5A07EE900A1D
:108DB00067EE255A29EE097AB0EE486A27EE277A3F
:108DC00027EE0D7AC5EE876A9FEDC87A06EEC76A70
:108DD000B0EE467A9FEDC66A26EE866A06EEE67A21
:108DE00026EE266A06EE667A27EE097A67EE076AAD
:108DF00066EEA76A66EE8D6A85EEA66A76EE086A6A
:108E000038EE466ACAEE26BA87EE06AA38EE697AC6
:108E1000DFEDB86A27EE0A7A8DED0A7A37EE487AE6
:108E200027EE0B7AB4EEE67AF1EE10FA40F20687FE
:108E3000DFEDB16AB4EEE67AF1EE10FA40F10387A5
:108E40009FEDAE9A049037EE499A9FEDAD7A37EEDA
:108E5000497AC7EE0B7A17EE900A0AF079F99FED7E
:108E60009C1B41EC100B01F0FBFB51EC100B0AF0CA
:108E7000BFFCC9EE0B4A0446DDED047A74EE884A65
:108E80007AEE646A69EE8A3AC8EE26FACDED174AA0
:108E900063EEAF5A1FEE900A65EEA5EA29EEA5BA79
:108EA000CDED145ACDED117A0AF052F99FED881BE1
:108EB00041EC100B01F0D4FB57EC106B20460AF08C
:108EC00047F932463B460AF09BF90AF091FC38EE2E
:108ED0006EEA0890B0EECEEA1EEE100A0AF038F9FB
:108EE0009FED7D1B41EC100B01F0BAFB55EC104BD4
:108EF00008980AF02DF922462B460AF0ABFA0AF040
:108F000077FCB0EE4C0AF0EE6C0AF3EE086AB2EEB3
:108F1000006AF0EE08DA0EEEA66A09906EEEAD6A0F
:108F2000B7EE085A06EEAE6ADFED766A8DED165A98
:108F30006FEEA66AB0EE482A86EE8E3A0EEE852ACD
:108F40006EEE8B7AF1EE006AB0EE429A0BEE269A44
:108F5000CDED107ADDED017A8DED132A23EE273A5F
:108F60006EEE8B7ACDED066A39EE279A07EE900AFF
:108F700029EE0A9A06EE039A2BEEA76ADDED027A35
:108F800029EE069AFEEE00CA29EE279A01F0C4FAED
:108F900051EC100B0AF02CFC78EE4F7A0490CDEDDA
:108FA0000C7ADDED077A77EEA77A2AEE0EEA17EE55
:108FB000900A0AF0CDF841EC100B01F079F92AEE95
:108FC0000A6A9FED513A9FED511A9DED017ADDED50
:108FD000066ADDED145ACDED156A26EE0D6A59ECE0
:108FE000108B26EE0D6A9FED450AC8EE062A9FED0E
:108FF000486A22EE833A22EE866A23EE2B3A26EE68
:10900000226A23EE011A6FEE0F0A21EE221AF2EE07
:109010000A2A4FEE402A9FED3F0AF1EE0C1A40EE6D
:10902000802A6FEE217A27EE03CACDED0B7ADDEDB3
:10903000117A9FED390A62EE812A2CEE27CA62EE80
:10904000A72AB0EE6B7AF6EE007A0CEE277A26EEBF
:109050002B6AB0EE47CA02EE80CA9DED0E7ADFEDB4
:109060002F2ACDED067A0CEE287A4FEE621ADFED4C
:109070002C2AB0EE47CA40EEA21AB0EE487AF9EEBA
:10908000042A0FEE227A61EE811A67EE032AB0EE0F
:109090006D7A62EEAC2A41EE802ADFED221A9FED56
:1090A000220ADDED07CA0FEE617AF0EE471A40EEB4
:1090B000801A9DED0B7A41EE862A2AEE866A42EEF0
:1090C000A8CA3BE0AFF30080000000605555E53FC3
:1090D00000000000000010400000000000000C40F4
:1090E000AF4D983D1451C745DAD9543AABAAAA3EC0
:1090F000CAC0D33F0000C44200001C4300009C4291
:109100000000F042DAD9D439DAD9D43A91E60D3AEE
:10911000885E5035000009430000803D0000E442B5
:109120000080C543000010420000444291E68D3AA1
:10913000436A843F00005D43BDAF993BF3EE032AD1
:109140006AEEA22A22EE8F4A1AEEA64A7DEEC72ABE
:1091500024EE011A23EE6A4A01EE274A26EE226A1D
:109160009DED057A36EE066A75EEA52A34EE066A9E
:1091700029EEA74A06EE287AB8EE0C6A2DEE066AAA
:109180008DED117A26EE033A28EEA8FA23EE2A3A5C
:1091900023EE097A3BEE083A8DED127A02EE834A0D
:1091A00025EEA73AB0EE487A03EE2E4A09EE687A29
:1091B00014EE100A8DED057A09F0CAFFDDED067A8E
:1091C0009DED132ACDED137A3BEE0B4A044632EEA9
:1091D000442A2BEE274ADDED017A04EE6E2A0D4675
:1091E000B8EE084A27EE844A62EE047A17EE900A37
:1091F00009F0AEFF3EEEAE4A6EEE8B7A34EE4B4A8D
:10920000B6EE083A34EE674ADDED0C7A27EE833A83
:10921000064664EE037A0F4617EE900A09F098FFAF
:1092200042464B4609F0ECFF02460B4630463946B3
:1092300009F030FE1FED434A2FEE844A0646C4EE85
:109240000E7A0F4617EE900A09F082FF02460B468F
:109250003046394609F0D4FF02460B4620462946DF
:1092600009F016FEDDED097A3BEEAB4A044624EE2A
:10927000274A0D4624EE0A4A64EE0D7A17EE900A4C
:1092800009F066FF02460B462046294609F0B8FF62
:109290000AF0AEFA9DED027A9DED165A1FED5C4A7A
:1092A000DDED145ADDED156ADDED174A07EE900A83
:1092B00027EE87EA29EE055A6EEE287A25EE0F5A38
:1092C000CDED067ADDED0A7AF4EEC47AF1EE10FA0D
:1092D000DDED137A00F17E816AEE266A29EE094AF5
:1092E00066EEAF6AB3EE013A26EE84EAB0EE647A37
:1092F0000AEE037A07986FEE8E2A6EEE277A62EEF8
:10930000892A67EEAF7A62EE872A67EEAF7A82EE3D
:10931000AD3AF3EE0F2A64EEA24A5FED7A2A8DEDA4
:10932000155A67EE847A4AEE224A67EE8A7A8DED04
:10933000134A67EEA44A8DED143AC4EEAD7ACDED32
:10934000165ACDED0A7A09F003FF41EC100B00F03C
:10935000AFFFDDED087A2FEEA77A5FED897A27EE71
:10936000277ADDED047A27EE2B7A55EC104B27EEA9
:10937000277AC7EE297A9DED027A67EE877A17EE93
:10938000900A09F0E5FE22462B4609F039FF044613
:1093900018EE900A0D4609F0DBFE02460B46204609
:1093A000294609F02DFF0AF023FADDED165A0FEEDB
:1093B000900A15EE900A09F0CBFE04461CEE100A46
:1093C0000D4609F0C5FE41EC100B00F071FF204680
:1093D00053EC102B294609F013FFEB4B002209F048
:1093E00059FD9FEDE31B41EC100B01F039F90E988C
:1093F00057EC106B09F0ACFE41EC100BCDE90E01FF
:1094000000F056FF204653EC102B294609F0F8FED9
:10941000DD4B002209F03EFD9FEDD51B41EC100B0A
:1094200001F01EF9DDED087ADFEDD84A67EEA44AB7
:10943000DDED027A64EEA74A59EC108BC4EE8B7A0C
:109440003CEE2FCA17EE900A09F082FE424604460F
:109450000D464B463046394609F01AFD02460B468A
:109460002046294609F0CCFE0AF0C2F97CEEEFCA8C
:10947000DDED05FA9DED143ADDED0A7A8DED073A42
:1094800004EE900A4FEE4EFA3CEE24CA7CEEE4CA9B
:109490006FEE034A1CEE100A44EEE8FA68EEA74AA3
:1094A0003EEE8BBA64EE8F4A44EEE8FACDED05FA53
:1094B00009F04EFE41EC100B01F02EF89DED0E7BF5
:1094C00057EC106BB0EE470AF0EE670A01F024F893
:1094D000F0EE067A0BEE278ADDED107A38EE278A59
:1094E000DDED097A77EEA77A59EC108B67EE8A7A70
:1094F00027EE8DDADDED027A28EE0DDA6DEE277AB1
:1095000017EE900A09F024FE424604460D464B46EB
:109510003046394609F0BCFC02460B462046294637
:1095200009F06EFE044606980D4609F011FE02464B
:109530000B462046294609F0ADFC0AF059F9F2EE37
:10954000087A69EE277A9DED073A9DED134A9DED65
:10955000155A069027EE8E7A03EE2D7AF2EE045A13
:1095600064EE255A67EE837A05EE897AF5EE005AA5
:1095700027EE257A74EE045A27EE287A75EE8E5A75
:1095800027EE0F7A65EE8F5A05EEA85A07EE285A95
:109590009DED0A7A47EE2D7AB1EE087A2EEE077A23
:1095A00047EE0E7AB3EE0E7A24EE077A47EE0E7A85
:1095B000B2EE0E7A24EE077A47EE047A9FED747AC3
:1095C00067EE877A67EEA87A67EE8F7A67EEA87AF9
:1095D00007EEA85A0598DDED127A9DED119A8DEDF2
:1095E000025A07EE8F9A09F0B3FD02460B4609F0C6
:1095F00007FE04461AEE100A0D4609F0A9FD0246C0
:109600000B462046294609F0FBFD0AF0F1F8DDED96
:10961000067AF7EE00DA79EEE79AF0EE6D7A49EE27
:10962000E97A0AEE100A17EE900A09F091FD41EC72
:10963000100B01F0E3F851EC100B0AF0D9F80BEE27
:10964000100A1AEE100A09F083FD9FED4B1B41EC46
:10965000100B41EC180B01F003F819EE900A09F019
:1096600077FD04461CEE900A0D4609F071FD41ECB1
:10967000100B41EC1E0B00F01BFE204653EC102B90
:10968000294609F0BDFD0AF0B3F8B0EE4E0AF0EE3F
:109690006E0A6AEE0B7A09EE900A27EE8BBA00F09A
:1096A0003BFF9DED047ADFED3B7ADFED3BEA67EEB1
:1096B000277A59EC108BC7EE8B7A7CEE2CCA17EE0A
:1096C000900A09F045FD424606460F464B462046A5
:1096D000294609F095FD0B4602463946304609F009
:1096E000D9FB0AF085F8B1EE047AF0EE087ADDEDE8
:1096F000046A9DED025A4AEE877A9FED287A26EE9B
:10970000877A7AEEAD6A67EE877A7CEE89CA87EE51
:10971000A67A45EE2BCA27EE297A0DEE100AC7EE7F
:109720000B7AB0EE6DCA77EEACCA7CEEC97A17EE52
:10973000900A09F00DFD9FED121B41EC100B00F09B
:109740004BFF51EC100B0AF053F80EEE100AB5EE79
:10975000C0EAF1EE10FA44BFDFED117A3EEE27EADF
:109760000A23F0EE4ECA02931CE000BFAFF3008064
:109770000000000000000840000000000000F83F6A
:1097800000000060FB2119400000F03FABAA2ABF97
:10979000CDCC4C3EBDAF993ABD378635BDAF193AF9
:1097A000DB0FC9401CEE900A09F0D2FC41EC1B0B08
:1097B0001DEE100A09F0CCFCB0EE4B0AF0EE6B0A7D
:1097C00004460D4600F074FD19EE900A5BEC10ABF8
:1097D00009F0BEFCB0EE4B0AF0EE6B0A06460F46EF
:1097E00000F09AFE1EEE100AB0EE40FAF0EE60FABB
:1097F00009F0AEFC5246804689465B462046294623
:1098000009F0FEFC02460B464046494609F040FB83
:1098100053EC1F2B804689463046394609F0F0FC50
:1098200002460B464046494609F034FB53EC1B2BDD
:1098300009F02EFB53EC1F2B804689462046294613
:1098400009F0DEFC02460B460020F54909F020FB3A
:10985000324604460D463B465046594609F0D0FC78
:1098600002460B462046294609F012FB02460B46EB
:109870004046494609F0EEFD53EC1B2B09F00AFB6C
:1098800009F0B6FFF0EE6CDA0CEE900A7CEEED7AA1
:10989000F0EEE77AF4EEEE7AF1EE10FA06D9029BDA
:1098A000013B02937FF47EAF0DEE900A1DEE900A0D
:1098B00009F04EFC41EC100BCDE9020100F02CFE4A
:1098C00051EC100B09F094FF9DED027BB0EE470ABE
:1098D000F0EE670A0BEE100A00F0EAFC51EC100BF8
:1098E00009F086FFB0EE480AF0EE680A0BEE900A27
:1098F00000F084FF6DEE0B7A49EEAB7A6DEE0DEA67
:1099000049EEA9EA7CEE677A7CEE6EEA67EE8A7A27
:109910006EEE8ACA17EE900A09F01AFC04461CEE95
:10992000900A0D4609F014FC41EC100B00F066FFA4
:109930006DEE2BDA1EEE900A09F00AFC59EE8BDA76
:10994000CDE9020141EC100B00F058FF6DEE2D7ACD
:1099500059EC108B17EE900A09F0FAFBB04B064653
:109960000F4600224046494609F094FA02460B464B
:109970003046394609F06EFD7BEEE97A064617EE71
:10998000900A0F4609F0E4FB02460B463046394682
:1099900009F080FA53EC182B09F032FC22462B46D2
:1099A00009F058FD09F024FF9DED027BB0EE470A57
:1099B000F0EE670A0AEE100A00F020FF7BEE4D7A07
:1099C00059EC108B17EE900A09F0C2FB69EEAD7AE4
:1099D000824617EE900A8B4609F0BAFB904B06467A
:1099E0000F4600224046494609F054FA02460B460B
:1099F0003046394609F02EFD02460B465046594680
:109A000009F046FA53EC182B09F0FAFB22462B46D4
:109A100009F020FD09F0ECFE9DED027B7AEE0A6A6A
:109A2000F0EE4CBA56EE8ABAB0EE470AF0EE670A8C
:109A3000DFED7C6A08EE100A6AEEA6AA00F0DEFEF0
:109A400075A3D3E9002351EC100B09F0D9FB0646AE
:109A500001980F4609F07CFB02460B46304639461A
:109A600009F0CEFB2CEEACBA06461BEE100A0F46F0
:109A700009F06EFB02460B463046394609F0EAFC17
:109A800002460B460020664909F002FA22462B46A0
:109A900009F0B6FB9DED0C7ADFED637A67EE277A6D
:109AA000044667EEAB7A0D46C7EEAC7A38EE088A0C
:109AB00017EE900A09F04CFB02460B462046294659
:109AC00009F0E8F909F094FEDDED0B7A37EECCCA27
:109AD000DFED567A28EE0A8A2CEE27CA09EE900AA4
:109AE0002CEE08CACCEE0B7A77EE8E7A17EE900A3F
:109AF00009F02EFB41EC100B41EC1C0B00F00CFDAF
:109B000051EC100B09F074FEB0EE4C0AF0EE6C0A4A
:109B10000AEE100A00F0CCFB51EC100B09F068FEC5
:109B2000DDED047A6AEEA77A08EE900A67EEAB7A6A
:109B30006AEE88AA87EE8B7ADDED0D7A77EE277ACA
:109B400017EE900A09F004FB41EC100B41EC1C0BE2
:109B500000F0E2FC55EC104BB0EE4C0AF0EE6C0A53
:109B600000F0A6FB51EC100B09F042FECAEE8B7A16
:109B70000BEE900A77EE897A9FED2D9A17EE900AF8
:109B800009F0E6FA41EC100B41EC1C0B00F0C4FCB0
:109B900051EC100B09F02CFEB0EE4C0AF0EE6C0A02
:109BA00008EE100A00F084FB51EC100B09F020FEC7
:109BB00007EE900A28EE6B7A6BEEA7BA28EEA70A9A
:109BC00068EE880A07EE0A0A204629464BEE8A0A02
:109BD00020EE290A60EEA90A20EE090A60EE890A41
:109BE0008DED020ACDED010A09F002FE9FED111A7A
:109BF0009DED020ADDED010A07EE900A68EE818A0A
:109C000047EE8A8A68EEA98A28EE891A21B0BDEC4F
:109C1000108BBDE8F08F00BF000000403B9B4A3F27
:109C20000000F03FDAD9543A91E68D3991E60DB94A
:109C30001451C74500000000C066803F5FED024A36
:109C4000034CFFF71DB9DFED034A034CFFF718B9CA
:109C5000A5C38133BB90813F3A36013138B5094DF8
:109C600004462021284603F02BFA10B123780A2B52
:109C700000D138BD284603F01FFAC1B2204600F0DB
:109C800097F8EEE70038014002780A2A03D10B6802
:109C90000BB100F0D5B8704738B5094D04468021A6
:109CA000284603F00DFA08B1236803B138BD2046F9
:109CB00000F0EAFA81B2284603F0FAF9EFE700BFB4
:109CC00000380140C1680023C0E90133037000F18E
:109CD000100208441030824200D1704702F8013B64
:109CE000F9E7C16801220023C0E90023836000F185
:109CF000100208441030824200D1704702F8013B44
:109D0000F9E710B502F00EFF002414F4F06F05D14E
:109D1000E00A103002F0D6FE02F0C4FE8034B4F542
:109D2000FF4FF2D102F00AFF012010BD2DE9F843E8
:109D300003780A2B054636D1037E022B33D102F07D
:109D4000F1FE6C7EE40114F4F06F05D1E00A1030EE
:109D500002F0B8FE02F0A6FE04F10064134F05F114
:109D6000120604F50044923556F8089FD6F8048090
:109D700002F068FE3B6843F001033B60C4F80090CA
:109D8000C4F8048002F05EFE3B6823F001033B60F0
:109D900002F088FEB54204F10804E5D102F0CEFEDF
:109DA0000120BDE8F8830020FBE700BF142002403B
:109DB000037810B4092B0BD8DFE803F0050D161F4C
:109DC0002225282B2E35222902D10174012303706C
:109DD0005DF8044B7047692902D141740223F6E70C
:109DE0005DF8044BFFF76EBF0529F9D9092381748B
:109DF0000331436081600323E9E7C1740423E6E78C
:109E000001750523E3E741750623E0E78175072324
:109E1000DDE7C1750823DAE7D0E901239A4201762C
:109E20000CD20923D3E7D0E9013293423FBFC418D3
:109E300001332174436043689A42C9D10A23C6E7BB
:109E40002DE9F04303780A2B93B005460C4633D135
:109E50000B68002B30D046F622130B82C37CCB74E8
:109E6000037D0B75437D4B75837D8B75C27D130917
:109E700043EA0213CB750023CDE91033037E182B80
:109E800010D8182B10D8DFE803F062436A0F0F0FC9
:109E90000F0F0F0F0F7C560F0F43528D4328480FA3
:109EA0000F1A4300FF2B33D0A37C0333A36000239E
:109EB00023602846FFF706FF13B0BDE8F083542364
:109EC0008B7418230B7601F15E0201F11903002156
:109ED00003F8011B9342FBD1E6E711A910A8FEF796
:109EE000C9FAA8B10E23A37414232376DDE9102345
:109EF000110A6276A176110C120E22771A0A637784
:109F0000A2771A0C1B0EE176E27784F82030CBE7BB
:109F10000623A374FF232376C6E7D0F81900D5F8EB
:109F20001D10CDE91001FEF70DFA0028F0D0062330
:109F3000A3741023EFE7194B1B68002BE8D0FFF741
:109F4000E0FE0723A37440F201132383ACE7134B15
:109F50001B68002BDCD007238B740123F5E70F4B24
:109F60001B68002BD4D0FFF7E1FE30B10723A374A8
:109F7000012323766B7E637696E70623A3740F2373
:109F8000C9E7064B1B68002BC2D0054B01221A60A3
:109F900007238B744FF60173D7E700BFE801002059
:109FA000E40100208369AD4A23F07F4323F0FF03DF
:109FB0009342ADD1C37E452BAAD100F11C0106AE60
:109FC00006A8FEF74DFB0FCEDFF8B482DFF8B4929F
:109FD00047460FC70FCE0FC733683B6002AE4146FE
:109FE0003046FEF731FD96E8070089E80700304665
:109FF000FEF7DAFA96E80700994F87E80700494626
:10A000003846FEF729FE98ED041AD8ED030A98EDBC
:10A01000083AD8ED072A98ED062AD8ED051ADFF898
:10A020005092F0EE403A98ED020AFEF765FE8D4A36
:10A03000502382ED021AA3748B4BA361002382ED9F
:10A04000000AC2ED010A904649464E461A460133BF
:10A050000E2B01F8012BFAD1B7F90030834A84485E
:10A06000072103F063FE3378237773786377B3783F
:10A07000A377F378E3772C2384F820307C4A0023FD
:10A08000194601330E2B02F8011BFAD1BB78794A2D
:10A090007748042103F04AFE337884F8213073783E
:10A0A00084F822302C2384F82330714A0023194687
:10A0B00001330E2B02F8011BFAD1FB786D4A6C4874
:10A0C000042103F033FE337884F82430737884F865
:10A0D00025302C2384F82630654A002319460133A5
:10A0E0000E2B02F8011BFAD13B79624A6048042129
:10A0F00003F01CFE337884F82730737884F8283016
:10A100002C2384F829305A4A0023194601330E2B98
:10A1100002F8011BFAD17B79564A5548042103F015
:10A1200005FE337884F82A30737884F82B302C239A
:10A1300084F82C304E4A0023194601330E2B02F8C6
:10A14000011BFAD1BB794B4A4948042103F0EEFDCB
:10A15000337884F82D30737884F82E302C2384F8EB
:10A160002F30434A0023194601330E2B02F8011BFE
:10A17000FAD1BB68404A3E480B2103F0D7FD3C4A68
:10A1800004F1300304F1390112F8010B03F8010B5B
:10A190009942F9D12C2384F839300026344B3246C9
:10A1A00001360E2E03F8012BFAD1D8F8000008F082
:10A1B000CFFF324ACDE9000131462D4803F0B6FD0C
:10A1C0002B4A04F13A0304F1470112F8010B03F89A
:10A1D000010B9942F9D12C2384F847300026244BF7
:10A1E000324601360E2E03F8012BFAD1D8F80400BE
:10A1F00008F0AEFF214ACDE9000131461C4803F0CA
:10A2000095FD1B4A04F1480304F1550112F8010BB6
:10A2100003F8010B8B42F9D12C2384F8553000262A
:10A22000134B324601360E2E03F8012BFAD1D8F823
:10A23000080008F08DFF114ACDE900010C483146B5
:10A2400003F074FD04F1560304F1630219F8011BD5
:10A2500003F8011B9A42F9D126E600BF00544C00D6
:10A260000C0200200002002011454349B4390108C6
:10A27000F0010020B9390108BE390108C4390108CC
:10A28000180200203C02002010B5046882686CB9F6
:10A290004368934203D2C11801330C7C4360436886
:10A2A000934201D1FFF71DFD204610BD0024F6E7C3
:10A2B00000B551EC100B2C4A21F00043934285B0BD
:10A2C00020DD2A4A934209DD10EE102A0B4608F0E1
:10A2D000DFFD41EC100B05B05DF804FB684601F0B2
:10A2E0006BF900F00300012817D002282FD028B303
:10A2F00001209DED021B9DED000B02F09DF951EC3C
:10A30000100BE6E79FED161B01F03AFC51EC100B29
:10A3100041EC100B05B05DF804FB9DED021B9DEDBB
:10A32000000B02F089F953EC102B10EE100A03F128
:10A33000004141EC100B05B05DF804FB9DED021BE4
:10A340009DED000B01F01CFC51EC100BC1E79DEDE5
:10A35000021B9DED000B01F013FCE4E7AFF300805E
:10A360000000000000000000FB21E93FFFFFEF7F3D
:10A3700051EC100BF8B5C1F30A53A3F2FF35132DBE
:10A380000C4610EE106A30DC002D1EDB384F2F41DA
:10A3900007EA010303432DD033A3D3E9002308F0D8
:10A3A00079FD0022002309F0BBF948B1002C04DA42
:10A3B0004FF4801343FA05F52C4424EA07040026E1
:10A3C0002346324643EC102BF8BD27A3D3E90023E4
:10A3D00008F060FD0022002309F0A2F90028EFD068
:10A3E000002C29DB00263446EAE7332D05DDB5F5E0
:10A3F000806F19D041EC100BF8BDA3F213434FF05E
:10A40000FF37DF400742F5D017A3D3E9002308F058
:10A4100041FD0022002309F083F90028D0D0002C50
:10A4200013DB26EA0706CBE710EE102A0B4608F0EE
:10A4300031FD41EC100BF8BD24F000430D4A1E43E2
:10A44000002E18BF14460026BAE7142D08D00123A9
:10A45000C5F1340503FA05F5AE1928BFE418E0E7A5
:10A460000134DEE7AFF300809C7500883CE4377E62
:10A47000FFFF0F000000F0BF53EC102B70B5C3F3CB
:10A480000A55A5F2FF311329184610EE104A21DCB7
:10A49000002908DB1F4D0D4105EA0306344310D1A6
:10A4A00043EC102B70BD03F00040013104BF40F0BD
:10A4B0007F5040F4401000240346224643EC102B0A
:10A4C00070BD4FF4002343FA01F1084420EA05006F
:10A4D0000024F1E733290ADDB1F5806FE0D110EEF9
:10A4E000100A194608F0D6FC41EC100B70BDA5F21D
:10A4F00013454FF0FF3626FA05F52A42D0D0012346
:10A50000C1F1330103FA01F1641828BFC01824EA2D
:10A510000504D1E7FFFF0F0000B551EC100B2C4AEA
:10A5200021F00043934285B027DD2A4A934209DD9A
:10A5300010EE102A0B4608F0ABFC41EC100B05B0F6
:10A540005DF804FB684601F037F800F003000128CD
:10A550001FD0022830D028B39DED021B9DED000BCB
:10A5600001F00EFB53EC102B10EE100A03F100412A
:10A5700041EC100B05B05DF804FB00209FED121BB1
:10A5800002F05AF851EC100B41EC100B05B05DF8DD
:10A5900004FB9DED021B9DED000B01F0F1FA51EC67
:10A5A000100BCAE701209DED021B9DED000B02F090
:10A5B00043F851EC100BC0E701209DED021B9DED0F
:10A5C000000B02F039F8CDE70000000000000000A9
:10A5D000FB21E93FFFFFEF7FF8B52DED028B57EC34
:10A5E000106B55EC114B00F043F91C4BB0EE408A58
:10A5F000F0EE608A93F90030013314D022462B46E6
:10A600002046294609F096F868B932463B4630465E
:10A61000394609F08FF830B9204629460022002338
:10A6200009F056F830B9B0EE480AF0EE680ABDEC11
:10A63000028BF8BD02F0A4FD00220023212101605D
:10A640001046194608F006FF41EC180BB0EE480A18
:10A65000F0EE680ABDEC028BF8BD00BF00000020E0
:10A66000F8B52DED028B57EC106B55EC114B00F04B
:10A6700037FA614BB0EE408AF0EE608A93F9003011
:10A6800001332AD022462B462046294609F052F8AB
:10A6900018BB32463B463046394609F04BF8002895
:10A6A00044D1002200233046394609F011F8D8B1D0
:10A6B000002200232046294609F00AF800283DD14F
:10A6C00045EC104B02F08CF838B1204629460022A8
:10A6D000002309F007F800285BD1B0EE480AF0EE3D
:10A6E000680ABDEC028BF8BDB0EE480AF0EE680ACD
:10A6F00002F076F858B30022002351EC180B08F052
:10A70000E7FF0028E9D047EC106B02F069F8002859
:10A71000E3D045EC104B02F063F80028DDD002F0E6
:10A720002FFD222303609FED2C8BD6E72046294680
:10A730000022002308F0CCFF0028CED09FED288B0C
:10A74000B0EE480AF0EE680ABDEC028BF8BD47ECAB
:10A75000106B02F045F80028CDD045EC104B02F00C
:10A760003FF80028C7D053EC182B18EE100A1946F2
:10A7700008F0E0FF18BB02F003FD22230360002273
:10A7800000233046394608F0ADFF48B99FED168BDF
:10A79000A3E702F0F5FC212303609FED158B9CE7F6
:10A7A00045EC104B02F02CF822462B4651EC100BD6
:10A7B00008F08EFF0028E9D19FED0D8B8DE702F0A8
:10A7C000DFFC00220023212101601046194608F019
:10A7D00041FE41EC180B80E7000000000000000083
:10A7E000000000000000F03F000000000000F07FCB
:10A7F000000000000000F0FF0000002038B52DED43
:10A80000028B55EC104B01F0EDF8184BB0EE408A7E
:10A81000F0EE608A93F9003001330DD022462B46CA
:10A820002046294608F086FF30B9204629460022F6
:10A83000002308F057FF30B9B0EE480AF0EE680A7E
:10A84000BDEC028B38BD02F09BFC002200232121CD
:10A8500001601046194608F0FDFD41EC180BB0EE02
:10A86000480AF0EE680ABDEC028B38BD00000020FB
:10A8700053EC112B2DE9F04723F0004858EA02066B
:10A8800051EC100B33D08E4F21F00049B9450E46E4
:10A890002DDC57421743DFF82CC248EAD7776745CB
:10A8A00011EE10EA23D8C1451C4611EE105A10EEE5
:10A8B00010AA10EE103A01F0004706DCC0F2B58095
:10A8C0007045C0F0B28000F0E4807E4A3240C2B9E8
:10A8D000B9F1000F40F0C680BAF1000F52467A4835
:10A8E00013DD5200002A00F1FF30FADC0DE008F021
:10A8F00087FC02460B4608F0ADFD41EC100BBDE8AD
:10A90000F0874FEA2950A0F2FF306E4A22407AB910
:10A91000B8F1000F40F09980BEF1000F7246DFF8E9
:10A92000A8C109DD5200002A0CF1FF3CFADC03E06B
:10A930004FEA285CACF2FF3C644A904267DBC6F306
:10A94000130242F4801261498C4551DBC4F31306B3
:10A9500046F48016A0EB0C0007E051EA04033FD058
:10A96000E20F630002EB41020138911B5C1B58B1FE
:10A97000AB4238BF01F1FF3100294FEAD37EECDA58
:10A980000EEB42025B00EFE7AB4238BF01F1FF3153
:10A990000029A4BF23460A4652EA030120D04C48AE
:10A9A000824208DCD90F01EB420282420CF1FF3CEB
:10A9B0004FEA4303F6DD45498C455FDAA1EB0C0114
:10A9C00014296DDC0CF21E40CB4002FA00F042FA72
:10A9D00001F103430F433946184641EC100B8EE753
:10A9E0003C4BFF0F03EBC70797ED000BBDE8F0876B
:10A9F000A1EB0C011F2921DC0CF21E4608FA01F81C
:10AA00002EFA06F60EFA01F546EA0806A2E7131A30
:10AA10001F2B0DDC00F21E4209FA03F92AFA02F29A
:10AA20000AFA03F342EA09028DE741EC100B66E7EC
:10AA3000294A121A0AFA02F2002384E7264EA6EBEC
:10AA40000C060EFA06F6002584E74FEAC822002A13
:10AA5000DFF878C07FF770AF5200002A0CF1FF3C9E
:10AA6000FADC69E74FEAC922002A18487FF74DAFA0
:10AA70005200002A00F1FF30FADC46E7A2F580120E
:10AA800017430CF2FF3C47EA0C51184641EC100BFF
:10AA900035E7104BFF0F03EBC70393ED000B2EE7D9
:10AAA0001F2906DC0CF21E4C02FA0CF2CB401343B9
:10AAB00091E7094BA3EB0C0342FA03F38BE700BFCA
:10AAC000FFFFEF7F0000F07FEDFBFFFF02FCFFFFC9
:10AAD000FFFF0F00D0390108E2FBFFFF000000007C
:10AAE0002DE9F04F51EC110B21F0004555EA000320
:10AAF00093B03DD059EC108B694B29F000449C4237
:10AB00004E4610EE10AA2CDC0F4611EE10CA36D0BD
:10AB10009D4226DC624B9D4220D0002ECDE90001F3
:10AB200038DB4FF0000BBCF1000F4ED15C4B9D4267
:10AB300000F094805B4B9D4200F0A180B7F1804F04
:10AB400000F09E84584B9F423FD1002E3DDB49ECE4
:10AB5000108B13B0BDE8F04F00F044BFBCF1000F04
:10AB6000DBD004F1404404F5801454EA0A030BD10D
:10AB70004C49002041EC100B13B0BDE8F08FB8F148
:10AB8000000F01D1A542C5DD484813B0BDE8F04F24
:10AB900001F02EBE464B9D4277DCA3F154739D42DB
:10ABA0000EDD2B15A3F2FF33142B40F37184C3F198
:10ABB00034032CFA03F202FA03F3634500F0B7847E
:10ABC0004FF0000BBCF1000FB4D049EC108B01F03A
:10ABD000FDFD51EC100BBAF1000F22D124B1314B25
:10ABE00026F040429A421CD1002F05DA02460B465D
:10ABF00000202C4908F02EFC002EBBDA04F1404462
:10AC000004F5801454EA0B0340F0648402460B46BA
:10AC10001046194608F03CF902460B4608F01AFCAB
:10AC2000A8E7F30F03F1FF3A5BEA0A0330D0214BA8
:10AC30009D4243DD03F104739D4240F3AF831E4BFD
:10AC40009C4240F33B83002F40F33B8312A3D3E9A4
:10AC500000231046194608F0D3FA8BE704F140436D
:10AC600003F5801353EA0A0382D0134B9C4240F34E
:10AC70005383002FC0F22583DDE900017AE7002F1E
:10AC8000C0F2F6834046494674E74FF0020B4AE7AC
:10AC900042464B46BCE700BF9C7500883CE4377ECB
:10ACA0000000F07F0000F03F0000E03FB4400108EA
:10ACB000FFFF3F430000E041FFFFEF3FD24B334037
:10ACC000002B40F0D3830022D04B08F099FA6FF0AC
:10ACD00034060C462315CE4AC4F31304A3F2FF3303
:10ACE00044F07F559E1994420D9645F4401540F36B
:10ACF000B083C84B9C4240F3F6839FEDAD7B8DED56
:10AD0000087B8DED107B9FEDAC7B8DED067B0136D6
:10AD10000D96A5F580154FF00008DDE906232946BC
:10AD2000064608F0B5F8DDE90623CDE90A0130460C
:10AD3000294608F0AFF802460B460020B64908F055
:10AD400089FB03460C46CDE90E3402460B46DDE98D
:10AD50000A0108F055FA6B1043F0005303F5002385
:10AD60000A462F46014603EB08050023CDE90212EF
:10AD70000293DDE902890024CDE904122B46224624
:10AD80004046494608F03CFA02460B46DDE90A0116
:10AD900008F07EF8DDE90623CDE90A0120462946C0
:10ADA00008F076F802460B463046394608F070F84F
:10ADB00042464B4608F024FA02460B46DDE90A01FA
:10ADC00008F066F8DDE90E2308F01AFADDE904451B
:10ADD000CDE9060122462B462046294608F010FA06
:10ADE00077A3D3E9002304460D4608F009FA76A3B9
:10ADF000D3E9002308F04EF822462B4608F000FA6B
:10AE000073A3D3E9002308F045F822462B4608F047
:10AE1000F7F971A3D3E9002308F03CF822462B464A
:10AE200008F0EEF96EA3D3E9002308F033F82246C8
:10AE30002B4608F0E5F96CA3D3E9002308F02AF8C3
:10AE4000224606460F462B462046294608F0D8F9EA
:10AE500002460B463046394608F0D2F942460446CF
:10AE60000D464B46DDE9040108F014F8DDE9062340
:10AE700008F0C6F922462B4608F00CF84246064672
:10AE80000F464B464046494608F0BAF90022634B4C
:10AE9000CDE90A0107F0FEFF32463B4607F0FAFF14
:10AEA00002980D46044622462B464046494608F085
:10AEB000A7F9002280468946584B2046294607F0CC
:10AEC000E7FFDDE90A2307F0E3FF02460B463046C1
:10AED000394607F0DDFFDDE9042308F091F9224649
:10AEE00006460F462B46DDE9060108F089F90246C1
:10AEF0000B463046394607F0CDFF06460F46024660
:10AF00000B464046494607F0C5FF029838A3D3E9EF
:10AF1000002304460D4608F073F94246CDE90401CA
:10AF20004B462046294607F0B3FF02460B46304603
:10AF3000394607F0ADFF30A3D3E9002308F060F9EC
:10AF40002FA3D3E9002306460F462046294608F0E2
:10AF500057F902460B463046394607F09BFFDDE9BC
:10AF6000102307F097FF04460D980D4608F0DEF811
:10AF7000224606460F462B46DDE9040107F08AFF0C
:10AF8000DDE9082307F086FF32463B4607F082FFE3
:10AF9000029832463B468046894607F079FFDDE954
:10AFA000082307F075FFDDE9042339E0AFF30080E3
:10AFB0000000000000000000000000000000F03F62
:10AFC000EF4E454A287ECA3F65DBC9934A86CD3F8E
:10AFD00001411DA96074D13F4D268F515555D53F74
:10AFE000FFAB6FDBB66DDB3F033333333333E33F0C
:10AFF000000000E009C7EE3FFD033ADC09C7EE3F61
:10B00000F5015B14E02F3EBE0000F07F00004043DE
:10B010008E98030079B60B000000F03F0000084056
:10B0200007F036FF0B4602462946204607F030FF60
:10B030000BF1FF3353EA0A03CDE9020140F06781C7
:10B040009FEDB97B8DED047BDDE9002300261046E2
:10B05000194632461F4607F01BFF42464B4608F092
:10B06000CFF8DDE9002382468B46DDE9020108F0D6
:10B07000C7F802460B465046594607F00BFF3246CA
:10B080008B4682463B4640464946CDE900AB08F038
:10B09000B7F80B460246804689465046594607F0A7
:10B0A000F9FEB94B994204460D468B4640F30C819C
:10B0B00001F13F4303F5E003034340F0FD819CA30E
:10B0C000D3E90023DDE9000107F0E4FE424606462D
:10B0D0000F464B462046294607F0DAFE02460B464D
:10B0E0003046394608F01CFB002840F0E581CBF3E0
:10B0F0000A534FF48012A3F2FE3342FA03F35B4487
:10B10000C3F30A52A14DA2F2FF321541C3F3130457
:10B1100023EA05010020C2F1140A44F48014BBF1B3
:10B12000000F02460B4644FA0AFA40464946B8BFA9
:10B13000CAF1000A07F0ACFE804689464246DDE9C6
:10B1400000014B4607F0A6FE4FEA0A5B0D460024BD
:10B1500079A3D3E900232046294608F051F8424656
:10B1600006460F464B462046294607F091FE02460A
:10B170000B46DDE9000107F08BFE71A3D3E9002344
:10B1800008F03EF870A3D3E90023804689462046A4
:10B19000294608F035F802460B464046494607F076
:10B1A00079FE8046894602460B463046394607F00E
:10B1B00071FE32463B4604460D4607F069FE0246E4
:10B1C0000B464046494607F063FE224680468946C4
:10B1D0002B462046294608F013F85DA3D3E9002347
:10B1E00006460F4608F00CF85BA3D3E9002307F0EE
:10B1F0004FFE32463B4608F003F859A3D3E900233B
:10B2000007F048FE32463B4607F0FAFF56A3D3E963
:10B21000002307F03DFE32463B4607F0F1FF54A302
:10B22000D3E9002307F036FE32463B4607F0E8FF3D
:10B2300002460B462046294607F02AFE06460F46E0
:10B2400002460B462046294607F0DAFF0022CDE9E8
:10B2500000014FF080433046394607F019FE0246A0
:10B260000B46DDE9000108F0F5F8424606460F46B8
:10B270004B462046294607F0C3FF42464B4607F09F
:10B2800009FE02460B463046394607F001FE2246CB
:10B290002B4607F0FDFD02460B4600203C4907F017
:10B2A000F7FD8B44BBF5801F02460B46C0F2378189
:10B2B0005946DDE9042307F0A3FF5BE4002FFFF606
:10B2C000C5AC0020002155E4DFF8CCC021F00043DC
:10B2D000634540F3EB802F4B0B4403430AD14246B6
:10B2E0004B4607F0D5FDDDE9002308F00FFA0028F2
:10B2F0003FF4FDAEDDE904011FA3D3E9002307F00D
:10B300007FFF1DA3D3E9002307F07AFF32E49FED0E
:10B310001C7B8DED047B97E6002FD2DADDE900344B
:10B32000184604F1004125E4000000000000F0BFD1
:10B33000FE822B654715973C00000000432EE63F38
:10B34000EF39FAFE422EE63F396CA80C615C20BE54
:10B35000D0A4BE726937663EF16BD2C541BDBB3E1B
:10B360002CDE25AF6A56113F93BDBE166CC1663FF9
:10B370003E5555555555C53F59F3F8C21F6EA501A9
:10B38000000000000000F03FFFFF8F40FFFF0F00B4
:10B390000000F03F00346F3FFFCB9040824B9C4257
:10B3A0008CDD824B9C423FF74EAC00227F4B07F076
:10B3B0006FFD69A3D3E9002304460D4607F020FF83
:10B3C00067A3D3E9002306460F462046294607F027
:10B3D00017FF002280468946754B2046294607F014
:10B3E0000FFF02460B4660A1D1E9000107F050FDB6
:10B3F00022462B4607F004FF02460B4600206D490B
:10B4000007F046FD2246CDE902012B46204629469B
:10B4100007F0F6FE02460B46DDE9020107F0F0FEFA
:10B4200053A3D3E9002307F0EBFE02460B46404648
:10B43000494607F02DFD02460B4604460D463046B0
:10B44000394607F027FD00208046894632463B46B4
:10B45000E6E59FED497B8DED087B8DED107B9FED43
:10B46000487B4FF000088DED067B56E4002631E462
:10B4700042464B4600204D4907F0ECFFFFF77ABBF0
:10B4800042464B464046494607F0BAFEFFF772BBBC
:10B49000BCF1000F36D1C3F1140345FA03F202FAEE
:10B4A00003F3AB424DD0E346FFF744BB414A93421E
:10B4B0004DDCB346B2464AE6DDE9040132A3D3E9E6
:10B4C000002307F09DFE30A3D3E9002307F098FE88
:10B4D000FFF750BBBBF1010F7FF44CAB01F1004310
:10B4E0001946FFF747BB9FED2A7B8DED087B9FED4B
:10B4F0002A7B8DED107B9FED2A7B4FF480288DED0C
:10B50000067B0AE449EC108B01F060F951EC100B5A
:10B51000BAF1000F7FF4BCABD346FFF75FBB5046D8
:10B5200043EC102B01F0FCF951EC100BC1E602F0DA
:10B530000102C2F1020BBCF1000F3FF4FBAAFFF7BE
:10B5400044BB02F00102C2F1020BFFF7F3BA1B1574
:10B55000CFE500BFAFF30080000000604715F73F64
:10B5600044DF5DF80BAE543E555555555555D53F06
:10B57000FE822B654715F73F000000000000000029
:10B58000000000000000F03F9C7500883CE4377E1E
:10B590000000004003B8E23F06D0CF43EBFD4C3E35
:10B5A000000000000000F83FFEFFEF3F0000F03F0A
:10B5B0000000D03F0000E03F2DE9F04F53EC102B8E
:10B5C000974923F000458D428FB040F3878095491D
:10B5D0008D421E46044629DC002E194610EE100A44
:10B5E00085A3D3E9002340F3AA8107F051FC8E4BD9
:10B5F0009D4206460F4600F0878081A3D3E90023D1
:10B6000007F046FC02460B46C4E9002339463046A3
:10B6100007F03EFC7AA3D3E9002307F039FCC4E924
:10B620000201012738460FB0BDE8F08F7F498D42F7
:10B6300040F38A807E498D425BDC2F15A7F21647C6
:10B6400010EE100AA5EB07519046894608F088F8DD
:10B6500007F06CFD82468B464046494652465B46A3
:10B66000CDE908AB07F014FC0022724B07F0C8FDCF
:10B670008946804608F074F8054607F057FD0246F3
:10B680000B4640464946CDE90A2307F001FC00225B
:10B69000684B07F0B5FD00220023CDE90C0108F04E
:10B6A00017F8002800F04981002D0CBF0123022368
:10B6B000614A019202213A46009108A8214600F011
:10B6C000A3FB002E0746ADDA6268E36802F1004290
:10B6D00003F1004347426260E360A3E700240025D2
:10B6E000002780ED000BC0E9024538460FB0BDE8E9
:10B6F000F08F10EE100A194607F0CAFB0027C4E9C4
:10B700000201C4E900018DE73FA3D3E9002307F05C
:10B71000BFFB3FA3D3E9002306460F4607F0B8FB63
:10B7200002460B46C4E900233046394607F0B0FB19
:10B7300037A3D3E9002307F0ABFB0127C4E90201DB
:10B7400038460FB0BDE8F08F01F040F859EC108B8F
:10B7500010EE100A30A3D3E90023494607F050FD4C
:10B760000022364B07F096FB07F0FAFF074607F07A
:10B77000DDFC21A3D3E90023CDE9040107F040FD5E
:10B7800002460B464046494607F082FB1CA3D3E91C
:10B79000002382468B46DDE9040107F031FD1F2FAF
:10B7A000CDE902014EDC02460B465046594607F0F1
:10B7B0006FFB234B7A1E804653F82230AB428946FA
:10B7C00048D042464B46C4E900895046594607F0E6
:10B7D0005FFBDDE9022307F05BFB002EC4E90201F9
:10B7E000BFF620AF09F1004501F100437F42C4E9F3
:10B7F0000085C4E9020315E700004054FB21F93F2E
:10B800003163621A61B4D03D0000601A61B4D03D6A
:10B810007370032E8A19A33B83C8C96D305FE43F60
:10B82000FB21E93F7BD90240FB21F93FFB21394154
:10B83000FFFFEF7F00007041603A01080000E03F29
:10B84000E0390108DDE902235046594607F020FBA4
:10B85000804689462D15C9F30A53EB1A102BB0DD2B
:10B8600057A3D3E90023DDE9040107F0C9FC8046B2
:10B87000894602460B465046594607F009FB0246E8
:10B880000B4650465946CDE9062307F001FB4246D8
:10B890004B4607F0FDFA4CA3D3E9002380468946C6
:10B8A000DDE9040107F0ACFC42464B4607F0F0FA34
:10B8B000DDE906ABCDE902010B460246594650468A
:10B8C00007F0E6FAC1F30A53ED1A312D8046894696
:10B8D0007FF777AF3FA3D3E90023DDE9040107F049
:10B8E0008FFC8046894602460B46DDE9060107F0DB
:10B8F000CFFA02460B4682468B46DDE9060107F089
:10B90000C7FA42464B4607F0C3FA34A3D3E90023F3
:10B9100080468946DDE9040107F072FC42464B4649
:10B9200007F0B6FA02460B4650465946CDE90223C7
:10B9300007F0AEFA8046894643E70323B8E607F0EE
:10B94000A9FA234B9D4206460F4616D01AA3D3E907
:10B95000002307F09FFA02460B46C4E9002339464C
:10B96000304607F095FA14A3D3E9002307F092FAC2
:10B970004FF0FF37C4E9020154E611A3D3E90023D5
:10B9800007F088FA10A3D3E900230F46064607F014
:10B9900081FA02460B46C4E900233946304607F0D7
:10B9A00077FA09A3D3E9002307F074FA4FF0FF37C1
:10B9B000C4E9020136E600BF3163621A61B4D03DCA
:10B9C0000000601A61B4D03D7370032E8A19A33B46
:10B9D000FB21F93F0000002E8A19A33BC149202515
:10B9E0009A837B392DE9F041634955EC104BA9430B
:10B9F00000F09F80002D2B4610EE102A52DD5FEAEA
:10BA0000255E00F0B180C3F31303AEF2FF3E43F4B2
:10BA10008013D10F1EF0010F01EB43034FEA4204E4
:10BA200003D0E40F04EB430394004FF0000C4FEA03
:10BA30006E0E664616254FF40012B118994202DCCC
:10BA40005B1A8E1894445B00013D03EBD4734FEAFC
:10BA500052024FEA4404F0D12F4620204FF000421A
:10BA600009E041D0E10F01384FEA520201EB4303F4
:10BA70004FEA440441D0B34202EB0501F1DD002955
:10BA800001EB020509DBB0469B1BA14288BF03F115
:10BA9000FF33641A17444646E4E7002DF3DB06F152
:10BAA0000108F1E725F00041214339D0002D50D1A4
:10BAB000D40A153B52052146002CF9D0E50256D494
:10BAC000002000E028464900CC0200F10105F9D52C
:10BAD0000C461146AA40C5F1200521FA05F5A3EB55
:10BAE000000E45EA04038EE7A142BBD8002901EB12
:10BAF0000205D2DB98460023CBE7234312D1780816
:10BB00004FEA6C0101F17F511CF0010F01F50011AA
:10BB100018BF40F0004001EB0E53024643EC102BDF
:10BB2000BDE8F0817B1C16BF781C0CF1010C4008AD
:10BB3000E6E710EE102A2B4610EE100A294607F011
:10BB40005FFB22462B4607F0A5F941EC100BBDE840
:10BB5000F0812046294607F09BF902460B4607F084
:10BB600079FC41EC100BDBE729467346A8E7114648
:10BB700020254FF0FF30B0E70000F07F000000000C
:10BB80002DE9F04F57EC106B2DED028BB0EE418A92
:10BB9000F0EE618A27F00049B9F1795F83B072DA7B
:10BBA00010EE100A394607F0DBFD002800F0F680A1
:10BBB00032463B463046394607F022FB7CA3D3E9A8
:10BBC000002304460D4607F01BFB7BA3D3E90023AB
:10BBD00007F060F922462B4607F012FB78A3D3E961
:10BBE000002307F055F922462B4607F009FB76A300
:10BBF000D3E9002307F04EF922462B4607F000FB5D
:10BC000073A3D3E9002307F043F922462B4607F03C
:10BC1000F7FA71A3D3E9002307F03CF922462B463B
:10BC200007F0EEFA82468B460022714B20462946E9
:10BC300007F0E6FA5246804689465B46204629468A
:10BC400007F0DEFA53EC182B04460D463046394611
:10BC500007F0D6FA02460B462046294607F018F9A7
:10BC600002460B464046494607F012F902460B468B
:10BC70000020604907F00CF941EC100B03B0BDEC5B
:10BC8000028BBDE8F08F10EE102A10EE100A3B4632
:10BC9000394607F0B5FA46A3D3E9002304460D461A
:10BCA00007F0AEFA44A3D3E9002307F0F3F82246E5
:10BCB0002B4607F0A5FA42A3D3E9002307F0E8F8E2
:10BCC00022462B4607F09CFA3FA3D3E9002307F056
:10BCD000E1F822462B4607F093FA3DA3D3E900236F
:10BCE00007F0D6F822462B4607F08AFA3AA3D3E9A2
:10BCF000002307F0CFF82B46224607F081FA3E4B8F
:10BD0000994582468B468FDD3C4B99453DDC0022B0
:10BD1000A9F50013002037499046994607F0B8F876
:10BD2000CDE900010022324B2046294607F068FA8F
:10BD300042464B4607F0ACF85246804689465B4681
:10BD40002046294607F05CFA53EC182B04460D46B2
:10BD50003046394607F054FA02460B46204629463B
:10BD600007F096F802460B464046494607F090F821
:10BD700002460B46DDE9000107F08AF841EC100BA2
:10BD800003B0BDEC028BBDE8F08F9FED157B4FF04B
:10BD900000088DED007BDFF86890C3E79FED120B84
:10BDA00003B0BDEC028BBDE8F08F00BFAFF30080A5
:10BDB000D43888BEE9FAA8BDC4B1B4BD9EEE213E18
:10BDC000AD529C804F7E923E9015CB19A001FA3E59
:10BDD0007751C1166CC1563F4C5555555555A53F29
:10BDE000000000000000E73F000000000000F03FFE
:10BDF0000000E03F0000F03F3233D33F0000E93F56
:10BE00000000D23F000000002DE9F04FADF5197D94
:10BE1000B94CA29D089354F825400594013B12F1BA
:10BE2000140F04900B910393C0F2B282B349D31E56
:10BE300081FB0301DB17C3EBA10307930133A3EBE2
:10BE40008303DB00D3180693079A039BD61A059A3F
:10BE500012EB03081AD408F1010800240025B044AD
:10BE600020AFDDF88C9208E059F8260007F05EF963
:10BE700001364645E7E8020108D0002EF4DA013623
:10BE8000204629464645E7E80201F6D1059B002BEE
:10BE9000089B4FEAC30301932ADB049A20A902EB13
:10BEA000030801EB030A059B72AA02EBC30B0DF515
:10BEB000E079039B002B4FF000064FF0000711DBE9
:10BEC000049C554675E90223F4E8020107F098F94D
:10BED00002460B463046394606F0DCFF444506462E
:10BEE0000F46EFD1E9E80267D9450AF1080AE0D127
:10BEF0000198049C0599019120448B0083460BA86E
:10BF0000A3F10802C3180A930CAB13440993019AD6
:10BF100098A901EBC203002A53E9284529DD0DF554
:10BF2000E07A0AEBC2080DF130090022744B20467A
:10BF3000294607F065F907F013FC07F0F7F800222F
:10BF4000704B06460F4607F05BF902460B4620464B
:10BF5000294606F09DFF07F003FC78E9022349F823
:10BF6000040B3946304606F095FFD04504460D4691
:10BF7000DBD1DDF8189045EC104B484600F0D0FCC2
:10BF800055EC104B00224FF07F5310EE100A29465B
:10BF900007F036F941EC100BFEF7EAF9002251ECFC
:10BFA000100B594B07F02CF902460B462046294648
:10BFB00006F06EFF0D46044607F0D2FB804607F000
:10BFC000B5F80B4602462946204606F061FF4B466F
:10BFD000002B06460F4640F39980019A0CA9013ABE
:10BFE000C9F1180351F8225045FA03F101FA03F39D
:10BFF000EB1AC9F117050CA843FA05F5002D40F816
:10C000002230884400F38C800022002330463946D9
:10C0100007F05EFB002800F09282019B059A03F175
:10C02000FF394A4510DC03F180430CAA013B0A9812
:10C0300002EB8303002253F80419834242EA01020F
:10C04000F9D1002A40F0DB80059B0CAA013B52F895
:10C050002330002B40F0CE80099A012352F80419B6
:10C0600001330029FAD001994A1CCB18029391465A
:10C07000079B089902EB030A019B0B441D4620AB6A
:10C080000AF1804A03EBC505A39B0AF1FF3A03EBD3
:10C090008A0A70AB03EBC20301935AF8040F07F04E
:10C0A00045F80B4603990246A8460029E8E8022312
:10C0B0004FF000064FF0000711DB049C01E075E92A
:10C0C0000223F4E8020107F09BF802460B463046D3
:10C0D000394606F0DFFE5C4506460F46EFD1019B70
:10C0E000E3E802670193029B09F10109994545467E
:10C0F000D3DD01930BE700BF683B0108ABAAAA2A76
:10C100000000703E000070410000204069D1019B9A
:10C110000CAA013B52F82350ED15002D7FF774AFA8
:10C12000019B002B08F1010840F307820C9C002CB6
:10C130003AD1019B012B09D00CA9012251F8044FDF
:10C14000531C9CBB1A46019B9342F7D1069B002BC4
:10C150000EDD012B00F01181022B09D1019B5A1E2B
:10C160000CAB0CA953F82230C3F3150341F822306D
:10C17000022D7FF449AF32463B460020944906F039
:10C1800087FE06460F46002C3FF43EAF06989FED13
:10C190008C0B00F0C5FB3046394653EC102B06F0F3
:10C1A00077FE06460F462FE7012300220CA9C4F1B3
:10C1B000807441F822400199994210DD0CAA0CA824
:10C1C00052F8232000EB830300EB81006FF07F41E6
:10C1D00000E01A688A1A43F8042B8342F9D101243B
:10C1E000B4E700227B4B07F091FA002840F0D5809D
:10C1F000054609E7019B5A1C9146029238E70CABB1
:10C20000069A53F82930CDF81C80183A0495069206
:10C2100073B9019B03F18043023B0CA901EB83033B
:10C2200053F8041909F1FF39183A0029F8D0069299
:10C2300006989FED630B00F073FBB9F1000F55EC0E
:10C24000104BC0F2DD814FEAC90370AA02EB03086C
:10C25000069309F101060CABDFF87CB14FF0000A40
:10C2600008F1080703EB860656F8040D06F05EFF9A
:10C2700022462B4606F0C4FF5B4667E902015246A0
:10C280002046294606F0BCFF0CAB9E4204460D46F4
:10C29000EAD1CDF80890DDF8149048ABB9F1000F61
:10C2A0000393C34601934FF0000A2BDBDFF82C8188
:10C2B0005D4645A3D3E9002300260027002403E0C0
:10C2C000544510DCF8E80223F5E8020106F098FF77
:10C2D00002460B463046394606F0DCFD0134A145E6
:10C2E00006460F46ECDA019B029AE3E802679245A4
:10C2F0000193ABF1080B0AF1010306D0B9F1000F6D
:10C300009A46D3DA00260027EDE7A29BDDF80890D5
:10C31000032B2BD8DFE813F0F600E500E5006600FC
:10C3200048AB00240025039303992B462246D1E90C
:10C33000000106F0ADFD049B002B40F040810B9BFB
:10C34000B9F1000FC3E900450DDD4AAD0124013408
:10C35000F5E8022306F09EFDA145F8DA049B13B12F
:10C3600001F1004319460B9BC3E90201079B03F04F
:10C3700007000DF5197DBDE8F08F019B5A1E0CAB2F
:10C380000CA953F82230C3F3160341F82230EFE62C
:10C3900000216FF01703079154E5019B002B08F172
:10C3A0000108C8BF02253FF7C1AE32463B46002018
:10C3B000074906F06DFD022506460F4624E600BF3C
:10C3C000000000000000F03F00000040FB21F93FAA
:10C3D0000000F03F0000E03F0000703E803B01089D
:10C3E00048AB0393B9F1000F40F31D81039A4FEA64
:10C3F000C9030193D318D3E900AB984678E90267E3
:10C4000052465B463046394606F044FD04460D462A
:10C4100002460B463046394606F03AFD5B46524628
:10C4200006F038FD039B4345A246AB46C8E902012E
:10C43000C8E90045E2D1B9F1010F40F3F480019B56
:10C44000039A09F1005909F1FF3913444FEAC90170
:10C45000D3E9006701F1080A019192440DF5947B3C
:10C460007AE9028932463B464046494606F012FDCB
:10C4700004460D4602460B464046494606F008FD76
:10C4800032463B4606F006FDD34526462F46CAE90E
:10C490000201CAE90045E3D1019C039B103400204E
:10C4A00000211C4403F1100574E9022306F0F2FC9C
:10C4B000A542F9D1039C049ED4E90023D4E90245A6
:10C4C000002E40F087800B9EC6E90023079BC6E93B
:10C4D000040103F00700C6E902450DF5197DBDE82A
:10C4E000F08F069E039F0836002400253E4476E91F
:10C4F00002232046294606F0CDFCB74204460D46ED
:10C50000F5D111E7069C039D0834002000212C443E
:10C5100074E9022306F0BEFCA542F9D1049B13B1D5
:10C5200001F1004319460B9BC3E90001079B03F08F
:10C5300007000DF5197DBDE8F08F002406E6069B87
:10C540000495584247EC106BCDF81C8000F0E8F9D8
:10C5500055EC104B0022354B10EE100A294607F01F
:10C56000D5F810B30022324B2046294606F048FE8B
:10C5700007F0F6F8064606F0D9FD00222B4B06F030
:10C580003FFE02460B462046294606F081FC07F096
:10C59000E7F8069B019A183302F1010906930CABE8
:10C5A00043F8220043F8296042E62046294607F076
:10C5B000D7F8019B0CAA994642F8230038E6224698
:10C5C0000B9C05F10043B9F1000FC4E900233FF7CC
:10C5D000BCAEC5E603F1004701F100430B99C1E988
:10C5E0000403079B2646944605F1004403F0070028
:10C5F000C1E900C7C1E902640DF5197DBDE8F08FFE
:10C60000A29B032B3FF6B2AE01A252F823F000BF6B
:10C6100021C6000821C3000821C30008E1C30008A7
:10C62000002000217AE70020002143E7000070414C
:10C630000000703E000000002DE9F04F55EC104B5B
:10C640002DED028BB0EE418AF0EE618A25F00043B9
:10C65000B3F1795F83B0824607DA10EE100A2946FB
:10C6600007F07EF8002800F08E8022462B462046F8
:10C67000294606F0C5FD06460F4602460B462046F3
:10C68000294606F0BDFD47A3D3E90023804689462D
:10C690003046394606F0B4FD44A3D3E9002306F042
:10C6A000F7FB32463B4606F0ABFD42A3D3E900233D
:10C6B00006F0F0FB32463B4606F0A2FD3FA3D3E96D
:10C6C000002306F0E5FB32463B4606F099FD3DA30C
:10C6D000D3E9002306F0DEFBCDE90001BAF1000F3B
:10C6E00037D000222E4B51EC180B06F089FDDDE906
:10C6F000002382468B464046494606F081FD0246AD
:10C700000B465046594606F0C3FB32463B4606F000
:10C7100077FD53EC182B06F0BBFB1FA3D3E90023D6
:10C7200006460F464046494606F06AFD02460B465D
:10C730003046394606F0AEFB02460B4620462946F7
:10C7400006F0A6FB41EC100B03B0BDEC028BBDE87C
:10C75000F08F02460B463046394606F051FD0EA3D7
:10C76000D3E9002306F094FB42464B4606F048FD11
:10C7700022462B4606F08EFB41EC100B03B0BDECBD
:10C78000028BBDE8F08F45EC104B03B0BDEC028B83
:10C79000BDE8F08FAFF30080495555555555C53F5D
:10C7A0000000E03F7CD5CF5A3AD9E53DEB9C2B8A7F
:10C7B000E6E55A3E7DFEB157E31DC73ED561C1197E
:10C7C000A0012A3FA6F810111111813F51EC100B66
:10C7D00010EE102A21F0004343EC102B704700BFED
:10C7E00010EE903A43F0004000F58010C00F704703
:10C7F0009FED010B704700BF000000000000F87FB4
:10C80000F0B553EC102BC3F30A56A6F2FF301328F1
:10C8100083B019464FEAD37410EE105A37DC002863
:10C820002DDB3D4E064103EA060717432BD0760861
:10C8300033401D430CD04FF48023132821EA060611
:10C8400043FA00F141EA06010CBF4FF00045002514
:10C85000324800EBC4042A46D4E900450B46204682
:10C86000294606F017FBCDE9000122462B46DDE9FB
:10C87000000106F00DFB41EC100B03B0F0BD23F0FE
:10C880000040104322D143EC102B03B0F0BD3328FD
:10C8900009DDB0F5806FF6D110EE100A06F0FAFA55
:10C8A00041EC100BF1E7A6F213464FF0FF30F040D9
:10C8B0000242E8D040080242CAD04FF0804325EA45
:10C8C000000043FA06F640EA0605C1E7C3F3130089
:10C8D000104345420543114800EBC400D0E900670E
:10C8E000590C2D0B490405F4002545EA0103304697
:10C8F000394606F0CFFACDE900013B463246DDE984
:10C90000000106F0C5FA21F0004343EAC47141EC8E
:10C91000100B03B0F0BD00BFFFFF0F00B83B0108D4
:10C9200038B553EC102BC3F30A511C46054681BBA6
:10C9300010EE101A23F00044214329D0194600229A
:10C940003D4B3E4C10EE100A06F05AFCA542024642
:10C950000B4616DB0C46C1F30A513639294440F226
:10C96000FE70814221DC002947DC11F1350F34DAF9
:10C970004CF250318D4218DC002B27A1D1E9000187
:10C9800044DB25A3D3E9002306F03AFC41EC100B6D
:10C9900038BD40F2FF708142E0D110EE100A194616
:10C9A00006F078FA41EC100B38BD002B1CA1D1E940
:10C9B000000107DB1AA3D3E9002306F021FC41ECB8
:10C9C000100B38BD18A1D1E9000115A3D3E900234C
:10C9D00006F016FC41EC100BF3E724F0FF4424F4BE
:10C9E000E004363144EA0153104619460022144B44
:10C9F00006F006FC41EC100B38BD24F0FF4424F493
:10CA0000E00444EA015343EC102B38BD08A1D1E9FE
:10CA10000001B6E7AFF3008059F3F8C21F6EA5011D
:10CA20009C7500883CE4377E9C7500883CE437FEAA
:10CA300059F3F8C21F6EA58100005043B03CFFFFC0
:10CA40000000903C024A1368DB03FCD4704700BF2F
:10CA500010200240024A136843F0800313607047BD
:10CA600010200240024A136843F0400313607047ED
:10CA700010200240024A136843F0200313607047FD
:10CA800010200240024A136843F0100313607047FD
:10CA900010200240024A136843F0080313607047F5
:10CAA0001020024008B5FFF7D5FFFFF7DBFFFFF7C7
:10CAB000E1FFFFF7E7FFFFF7EDFFBDE8084000F0FB
:10CAC00045B8000008B5FFF7BDFF10490B6823F417
:10CAD0007F6323F008030B60FF2882BF0B6843F4D9
:10CAE00000630B600B6843EAC00008600B6843F00A
:10CAF00002030B600B6843F480330B60FFF7A2FF67
:10CB00000B6823F002030B6008BD00BF1420024035
:10CB1000034A136823F0070318431060704700BFEF
:10CB200000200240034B044A1A6002F188321A6066
:10CB3000704700BF0820024023016745024A13687E
:10CB400043F000431360704714200240024A136808
:10CB500043F0010313607047102002402DE9F041BB
:10CB60000568C46800264FF0030E43FA06F7FF0776
:10CB70000DD577000EFA07FC01FA07F825EA0C0537
:10CB800024EA0C0402FA07F748EA05053C4301369B
:10CB9000102EEAD10560C460BDE8F081F0B5076AE7
:10CBA000466A00234FF00F0C42FA03F4E50707D55D
:10CBB0009D000CFA05F427EA040701FA05F52F4356
:10CBC0000133082BF0D14FF00F0C42FA03F4E407C5
:10CBD00008D59C00203C0CFA04F526EA050601FA6B
:10CBE00004F426430133102BEFD107624662F0BDF7
:10CBF000024A136843F4807313607047007000406A
:10CC0000024A136823F48073136070470070004079
:10CC100006281FD8DFE800F004090E13181A1C00BC
:10CC20000D4B1868C0F3406070470B4B1868C0F399
:10CC300040407047084B1868C0F380207047064B8F
:10CC40001868C0F340007047044BF9E7044BF7E75E
:10CC5000044BF5E70020704700100240901002409E
:10CC6000941002409810024008B502461046FFF7A3
:10CC7000CFFF0028FAD008BD032808D8DFE800F06D
:10CC8000160F08020D4A136813F00C0FFBD1704702
:10CC90000A4A1368C3F38103012BFAD17047074A8C
:10CCA0001368C3F38103022BFAD17047034A136858
:10CCB000C3F38103032BFAD1704700BF0810024071
:10CCC00006280AD8DFE800F0040A0F14191B1D001B
:10CCD0000D4A136843F08073136070470A4A136863
:10CCE00043F48033F8E7084A136843F48073F3E7AA
:10CCF000054A136843F00103EEE7044AF9E7044AE2
:10CD0000F7E7044AF5E700BF001002409010024028
:10CD10009410024098100240034A136823F0030362
:10CD200018431060704700BF08100240034A1368A0
:10CD300023F4605343EAC02010607047081002409B
:10CD4000034A136823F4E06343EA0020106070474D
:10CD500008100240034A136823F0F00343EA00106E
:10CD6000106070470810024010B5039C013964063A
:10CD700044EA01142043029C40EA4450034343EA3E
:10CD80000222024B42F080721A6010BD0C10024069
:10CD9000024A136843F40043136070479010024046
:10CDA0000B4B1A68042822F440721A6008D0052838
:10CDB0000AD0012803D11A6842F440721A60704701
:10CDC0001A6842F48072F9E71A6842F40072F5E7D3
:10CDD00090100240430903F1804303F5043300F04F
:10CDE0001F001968012202FA00F00843186070471A
:10CDF000430903F1804303F504330122196800F06D
:10CE00001F0002FA00F0014319601A6822EA0000CC
:10CE100018607047044BC0F30E0018601A6842EAAD
:10CE200001411960704700BF10280040074BCA221B
:10CE30001A6053221A60064A116821F0200111601D
:10CE400011688906FCD5FF221A607047242800402B
:10CE50000C280040024BCA221A6053221A60704705
:10CE600024280040014BFF221A607047242800400C
:10CE7000024A136843F08003136070470C28004097
:10CE8000024A136823F08003136070470C280040A7
:10CE9000024B1868C0F38010704700BF0C28004098
:10CEA00008B5FFF7F5FF0028FBD008BD024A13685C
:10CEB00043F020031360704708280040024A1368BB
:10CEC00023F0400313607047082800400A23B0FB9A
:10CED000F3F203FB120040EA0213064A116821F440
:10CEE0007F01116011681B0403F47F030B4313607F
:10CEF000704700BF042800400A23B0FBF3F203FB95
:10CF0000120040EA0210084A136823F4F853136031
:10CF100003020002116803F4805300F470601843A8
:10CF200008431060704700BF042800400A23B0FB8C
:10CF3000F3F203FB120040EA0213054A116821F0E4
:10CF40003F011160116803F03F030B43136070470A
:10CF5000042800400F4B1A68C9B122F480021A60FD
:10CF60000A23B0FBF3F203FB120040EA0210094A65
:10CF7000136823F47C13136003040004116803F4A2
:10CF8000401300F47020184308431060704742F4C7
:10CF90008002E4E7002800400A23B0FBF3F203FB21
:10CFA000120040EA0210084A136823F4FE4313609B
:10CFB00003020002116803F4E04300F470601843B8
:10CFC00008431060704700BF002800400A23B0FBF0
:10CFD000F3F203FB120040EA0213054A116821F044
:10CFE0007F011160116803F07F030B4313607047EA
:10CFF0000028004038B50D4619461446FFF7AAFF31
:10D000002846FFF7C9FF2046BDE83840FFF7DEBFDE
:10D010000F4A904210B54FEA510306D10D4A1268EB
:10D020001A44B2FBF1F2C26010E00B4C0B4AA04272
:10D030001268F5D1B2FBF1F001FB102203EB0222E2
:10D04000B2FBF1F3064A03EB0023136010BD00BFEF
:10D05000003801400C000020008000400800002043
:10D060000C800040036808290CBF23F4805343F46C
:10D07000805303607047436823F440531943416071
:10D080007047036823F4C063194301607047036865
:10D0900023F00C03194301607047836823F4407345
:10D0A000194381607047036843F0010303607047D0
:10D0B000C1F3080181627047406AC0F308007047FD
:10D0C000C3690B4214BF012000207047FEE7704780
:10D0D00038B51A4A1A4B1B498B421BD31A4A0021F6
:10D0E00093421CD3194A1A4C13681A4D43F4007327
:10D0F0001360536F43F470035367AC4212D3164C62
:10D10000164DAC4212D3FBF751F8154C154DAC42FD
:10D1100010D338BD52F8040B43F8040BDCE743F896
:10D12000041BDDE754F8043B9847E6E754F8043B5A
:10D130009847E6E754F8043B9847E8E74841010878
:10D1400000000020E40100205802002014ED00E05F
:10D150004841010848410108484101084841010887
:10D160004841010848410108002101F063BE00BFA9
:10D170000A22002101F0CABF0A23002201F0B8BF31
:10D18000014B1868704700BF10000020F0B48607FC
:10D1900046D0541E002A3CD0CAB2034602E014F125
:10D1A000FF3436D303F8012B9D07F8D1032C29D97E
:10D1B000CDB245EA05250F2C45EA054533D9A4F142
:10D1C0001006360903F1200707EB061703F11002DA
:10D1D00042E9045542E902551032BA42F8D1721CB4
:10D1E00014F00C0F03EB021204F00F0613D0331FE0
:10D1F00023F003030433134442F8045B9342FBD14E
:10D2000006F003042CB1C9B21C4403F8011B9C4274
:10D21000FBD1F0BC704734461346002CF3D1F8E73D
:10D2200014460346C2E71A462646E0E72DE9F047D2
:10D2300057EC106B84B0002F894692461946DDE901
:10D240000D545EDB0023662D0B7018D0462D16D0D2
:10D2500025F02003452B36D003AA02ABCDE90032DE
:10D2600002210C9B4A4647EC106B01F0EFFF672D43
:10D27000804636D11AF0010F35D1039B1CE003AA7A
:10D2800002ABCDE9003203210C9B4A4647EC106B00
:10D2900001F0DCFF804600EB090598F80030302BE8
:10D2A00034D00C9B1B681D443046394600220023B5
:10D2B00006F00EFAD0B12B46A3EB080340462360DC
:10D2C00004B0BDE8F08703A902AB09F10109CDE97B
:10D2D00000314A460C9B022147EC106B01F0B6FF6F
:10D2E0008046472DC6D008EB0905DDE7039B9D422C
:10D2F000E2D930215A1C03921970039BAB42F9D337
:10D30000DAE707F100431F462D239CE700220023A4
:10D310003046394606F0DCF90028C2D10C9AC9F132
:10D3200001031360BFE700BFF0B400290446BABF91
:10D3300049422D232B23092904F8022B82B0437084
:10D340002DDD0DF107063546194F01E0154619464A
:10D3500087FB0132CB17C3EBA20303EB8302A1EBE4
:10D3600042023032632905F8012C05F1FF32EDDC71
:10D370003033A91EDBB28E4202F8013C0BD92146A4
:10D3800001E012F8013B01F8013BB242F9D10DF185
:10D3900009035D1B2C44201A02B0F0BC70473031E9
:10D3A0003023041DC1708370201A02B0F0BC704796
:10D3B000676666662DE9F04F8DB00C46DDF8588043
:10D3C00016461F46054603F095FA0368069318466D
:10D3D00000F0F6FC00230A93D8F8003007900733DA
:10D3E00023F0070393ED007B08338DED047BD4F825
:10D3F00000B094F818A0C8F80030DDE9042323F049
:10D4000000499046104684ED127B49464FF0FF32AA
:10D41000AF4B06F08FF940B9404649464FF0FF3216
:10D42000AB4B06F069F900287BD0DDE90401024628
:10D430000B4606F07FF9002840F035826168481CF1
:10D440004BF480622CD0BAF1670F64D0BAF1470F69
:10D4500061D0002322600AA8039309AB02900093D5
:10D46000CDF804A00DF123039DED040B2846FFF732
:10D47000DDFE8046BAF1650F099B33D8013B1946A2
:10D48000524604F150000993FFF74EFF0A9A131811
:10D49000012A8146236140F37E810133236133E019
:10D4A00006216160002322600AA8039309AB029061
:10D4B0000093CDF804A00DF123039DED040B284645
:10D4C000FFF7B4FE0AF0DF03472B8046D2D1099B59
:10D4D000D91C80F2E280AAF1020A5FFA8AFABAF154
:10D4E000650FCBD9BAF1660F00F0DE800A9A9A4236
:10D4F00040F3E580002BD4BFC3F1020101210A44AF
:10D500002261A3654FF000099DF823300BB32D2352
:10D5100084F843301DE0002940F01381012161604F
:10D52000C0E7DDE904010022002306F0DBF810B1BA
:10D530002D2384F84330674867492BF00402032306
:10D540002260BAF1470F94BF8046884623614FF0AE
:10D550000009009733460BAA2146284600F0C2F97D
:10D56000013024D0236858052CD423694246314623
:10D570002846B84701301AD022680B98E368920712
:10D580001AD51A1A002A17DD04F119094FF00008FC
:10D5900004E0E3680B981A1A42450DDD01234A4660
:10D5A00031462846B847013008F10108F1D14FF063
:10D5B000FF300DB0BDE8F08F9842B8BF18460DB0EF
:10D5C000BDE8F08FBAF1650F33D900220023D4E90A
:10D5D000120106F07DF8002800F0828001233F4A06
:10D5E00031462846B8470130E1D0DDE909239A42A7
:10D5F00002DB2268D107C0D5DDE906233146284683
:10D60000B8470130D3D00A9B012BB5DD04F11A09CC
:10D610004FF0000803E00A9B013B4345ACDD0123CA
:10D620004A4631462846B847013008F10108F2D190
:10D63000BDE70A9A012A40F39A8001234246314607
:10D640002846B8470130B2D0DDE9062331462846E6
:10D65000B8470130ABD000220023D4E91201DDF835
:10D6600028A006F035F8002800F09080BAF1010FEC
:10D6700040F3888004F11A0A4FF0000803E00A9B87
:10D68000013B43457EDD0123524631462846B847DB
:10D69000013008F10108F2D189E7626893423FF74F
:10D6A0001AAF4FF0670A21E7002B626878DD23612B
:10D6B000002A00F0A68001321A44226121E7226884
:10D6C0002361D2077FF51DAF5A1C226119E700BF05
:10D6D000FFFFEF7FCC3B0108D03B0108DC3B01089A
:10D6E000099B002B63DD0A9BD4F858A05345A8BFC3
:10D6F0005346002B9B4608DD424631462846B84734
:10D7000001303FF454AFD4F858A02BEAEB7BAAEBDE
:10D710000B03002B40F3828004F11A034FF0000941
:10D720009A4604E0A36DA3EB0B024A4575DD012385
:10D73000524631462846B847013009F10109F1D176
:10D7400035E7002322600AA8039309AB02900093F7
:10D75000CDF804A00DF123039DED040B2846FFF73F
:10D7600065FD099BD91C8046FFF6B5AE95E7D90744
:10D770003FF563AF4246012331462846B8470130A2
:10D780003FF415AF4B4604F15002F0E60AF1FF33C7
:10D7900008F10102F0E72268D2077FF5B5AE7CE61A
:10D7A000002A33D12168C90730D40122A8E6012319
:10D7B000494A31462846B84701303FF4F8AEDDE922
:10D7C0000923134324D0DDE9062331462846B84710
:10D7D00001303FF4ECAE099B002B79DA04F11A0A10
:10D7E0004FF0000903E0099B5B424B4570DD0123CC
:10D7F000524631462846B847013009F10109F2D1B5
:10D80000D5E62168C8077FF57CAE54E7023277E69B
:10D810002268D3077FF5B1AED5E79A46DDE9092145
:10D820008A4202DB2368D80709D5DDE906233146A1
:10D830002846B84701303FF4BAAEDDE90921524528
:10D84000A1EB0203D4BFA1EB0A099946B9F1000F7D
:10D850000BDD08EB0A024B4631462846B84701303B
:10D860003FF4A5AEDDE909239B1A29EAE979A3EB88
:10D870000903002B7FF780AE04F11A0A4FF000086D
:10D8800007E0DDE909239B1AA3EB090343457FF772
:10D8900073AE0123524631462846B847013008F19D
:10D8A0000108EED183E6059B0C490D4A002BBCBF55
:10D8B0002D2384F843302BF0040323600323BAF1B3
:10D8C000470F94BF8846904623614FF0000940E619
:10D8D00042460A9B4BE600BFDC3B0108D43B0108F3
:10D8E000D83B01082DE9F0470C4691460A69896842
:10D8F000DDF820808A42B8BF0A46C9F8002094F8B3
:10D90000431006461F4611B10132C9F800202368B2
:10D9100099065CD5D9F800200232C9F800202368A6
:10D9200013F0060F19461DD1E1688A1A002AD8BFE4
:10D93000194617DD04F1190A002505E0E368D9F856
:10D9400000209B1AAB420CDD01235246394630467B
:10D95000C047013005F10105F0D14FF0FF30BDE8BF
:10D96000F087216894F84330003318BF01238A06FA
:10D970000AD5E1185A1C302081F84300224494F85B
:10D98000451082F84310023304F143023946304611
:10D99000C0470130E1D02368A268216903F0060383
:10D9A000042B1DD08A4226DD4FF00009521A914403
:10D9B0001A34002501E04D451DDA0123224639467F
:10D9C0003046C047013005F10105F4D1C5E713F039
:10D9D000060F13D094F84330003318BF0123D3E768
:10D9E000D9F80000E3688A42A3EB000323EAE37955
:10D9F000DCDC002BDCDC0020BDE8F087E168D9F836
:10DA000000208A1A002AD8BF194693DCAAE700BF73
:10DA10002DE9F0430C46097E85B06E29064617466F
:10DA20000C98984604F1430E6DD039D9732900F053
:10DA3000F68044D9752900F00481782940F01181DD
:10DA400078232268DFF858C284F84530016815064B
:10DA500051F8043B016040F1A180D10744BF42F07E
:10DA600020022260002B00F093801022002184F815
:10DA700043106068A0600028C0F2C880216821F0CF
:10DA800004012160002B40F0A380002840F0C080FA
:10DA90007546082A00F0AC80AEEB0503236141E037
:10DAA000632900F0E5801AD8002938D0582940F0C1
:10DAB000D88084F845102268DFF8E8C1C6E76F29EE
:10DAC00000F0BF80702940F0CC802268DFF8D0C120
:10DAD00042F020027823226084F84530B6E76429BA
